:020000040800F2
:10000000601800204D0200089B2100088D1E00088A
:100010004521000871060008FF33000800000000B9
:10002000000000000000000000000000690200085D
:100030001D160008000000006D020008A92A000833
:1000400071020008710200087102000871020008C4
:1000500071020008710200087102000871020008B4
:1000600071020008710200087102000871020008A4
:100070007102000871020008710200087102000894
:100080007102000871020008710200087102000884
:10009000D906000871020008710200087102000808
:1000A0007102000871020008710200087102000864
:1000B0007102000871020008710200087102000854
:1000C0007102000871020008710200087102000844
:1000D00071020008312E0008710200087102000848
:1000E0007102000871020008710200087102000824
:1000F0007102000871020008710200087102000814
:100100007102000871020008710200087102000803
:1001100071020008710200082D2B0008710200080E
:1001200071020008710200087102000871020008E3
:1001300071020008710200087102000871020008D3
:1001400079090008710200087102000871020008B4
:100150007102000871020008710200087130000885
:1001600071020008710200087102000871020008A3
:10017000710200087102000871020008000000000E
:100180007102000871020008710200087102000883
:100190007102000871020008710200087102000873
:1001A00000000000000000007102000800F002F8EA
:1001B00000F03CF80AA090E8000C82448344AAF1C5
:1001C0000107DA4501D100F031F8AFF2090EBAE8C3
:1001D0000F0013F0010F18BFFB1A43F0010318477B
:1001E0006850000088500000103A24BF78C878C1D9
:1001F000FAD8520724BF30C830C144BF04680C602D
:10020000704700000023002400250026103A28BF74
:1002100078C1FBD8520728BF30C148BF0B60704778
:100220001FB504F0E8FD1FBD10B510BD00F0FDF8CE
:100230001146FFF7F5FF04F011FB00F01BF903B4C2
:10024000FFF7F2FF03BC00F01FF900000C48016843
:1002500041F4700101600B4880470B480047FEE7FE
:10026000FEE7FEE7FEE7FEE7FEE7FEE7FEE7FEE766
:10027000FEE7000005480649044A064B70470000A7
:1002800088ED00E0C52A0008AD01000860140020D8
:100290006018002060140020032A40F2308010F023
:1002A000030C00F0158011F8013BBCF1020F624411
:1002B00098BF11F801CB00F8013B38BF11F8013BA2
:1002C000A2F1040298BF00F801CB38BF00F8013B4F
:1002D00011F0030300F02580083AC0F0088051F8BF
:1002E000043B083A51F804CBA0E80810F5E7121DCA
:1002F0005CBF51F8043B40F8043BAFF30080D207E9
:1003000024BF11F8013B11F801CB48BF11F8012BB4
:1003100024BF00F8013B00F801CB48BF00F8012BD7
:10032000704710B5203AC0F00B80B1E81850203A61
:10033000A0E81850B1E81850A0E81850BFF4F5AF85
:100340005FEA027C24BFB1E81850A0E8185044BF0F
:1003500018C918C0BDE810405FEA827C24BF51F87C
:10036000043B40F8043B08BF7047D20728BF31F870
:10037000023B48BF11F8012B28BF20F8023B48BFC1
:1003800000F8012B70474FF000020429C0F01280E2
:1003900010F0030C00F01B80CCF1040CBCF1020F38
:1003A00018BF00F8012BA8BF20F8022BA1EB0C010D
:1003B00000F00DB85FEAC17C24BF00F8012B00F803
:1003C000012B48BF00F8012B70474FF0000200B529
:1003D000134694469646203922BFA0E80C50A0E868
:1003E0000C50B1F12001BFF4F7AF090728BFA0E816
:1003F0000C5048BF0CC05DF804EB890028BF40F8E2
:10040000042B08BF704748BF20F8022B11F0804F23
:1004100018BF00F8012B7047704770477047000005
:10042000004870470014002070477546FFF7F8FF3A
:10043000AE4605006946534620F00700854618B0D1
:1004400020B5FFF717FFBDE820404FF000064FF042
:1004500000074FF000084FF0000B21F00701AC46F9
:10046000ACE8C009ACE8C009ACE8C009ACE8C00918
:100470008D46704710B50446AFF300802046BDE8B6
:100480001040FFF7DCBE000001491820ABBEFEE7BC
:100490002600020010B540F26C71024802F083FCA5
:1004A00010BD00000004014010B54FF42F61024858
:1004B00002F077FC10BD00000004014000B58BB0D5
:1004C0000121022002F008F80121080201F0D4FF06
:1004D00003220721394801F0B1F980200990022058
:1004E0008DF8280003208DF8290000208DF82A00BF
:1004F00001208DF82B0009A9304801F057F903229B
:1005000002212E4801F09AF90420099002208DF86A
:10051000280003208DF8290000208DF82A000120F2
:100520008DF82B0009A9254801F040F940F6B730B5
:100530000790B320ADF818000020ADF81A00ADF810
:10054000200006A91E4802F031FC6020ADF804002E
:100550000120ADF806000020ADF81000ADF808004D
:100560000820ADF812004001ADF814000020ADF8ED
:10057000160040F28A70039001A9114802F06CFB4A
:1005800008210F4802F0B8FB01A90D4802F0BEFB9C
:1005900008210B4802F0F6FB0121094802F0D8FAC5
:1005A0000121074802F0EFFA0121054802F0DFFAC5
:1005B000FFF770FFFFF778FF0BB000BD002002408F
:1005C0000004014010B596215A2003F0ADFAFA203C
:1005D00003F0C4FE03F0A0FA10BD38B54FF440702C
:1005E00001F018FE4FF47A7003F082FE04F0E8F890
:1005F00004F040F9002408E0204604F06FF940F2CE
:10060000C52003F0D3FE601CC4B2042CF4DB00F060
:10061000D6FEFFF753FF01F0A9FB04F0A9F85A2119
:100620004FF4AF7003F01CFA002005231A46012195
:10063000009000F019F9002005231A4601210090CE
:1006400000F076FA03F07EFA00F022FE01F09AF94B
:1006500002F0D8FE04F016FA02F078F800F0AFFECF
:10066000FFF7B0FF5A2147F2305003F0F9F938BDD7
:1006700000BFFEE7F0B585B004460D4616461F469E
:100680004FF40070009000208DF808008DF80900EC
:1006900008208DF80A00200A8DF80B00E1B28DF8D1
:1006A0000C10290A8DF80D10E9B28DF80E10310AE0
:1006B0008DF80F10F1B28DF81010390A8DF8111065
:1006C000F9B28DF812106946024800F02EFD05B00F
:1006D000F0BD00000064004010B50221084800F0A1
:1006E00089FB58B10221064800F0ACFA054A002106
:1006F000034800F0A2FC034800F006F810BD00001B
:1007000000640040A80100200168A1F2012107292E
:100710007DD2DFE801F058595A5B04203C004D4976
:10072000098809B24B4A1181017BC27A41EA022150
:10073000484A1180827B417B42EA012109B2454A45
:100740005180027CC17B42EA012109B2414A918079
:10075000417C91717CE04049098809B23E4A11818F
:10076000017BC27A41EA02213B4A1180827B417BB4
:1007700042EA012109B2384A5180027CC17B42EA37
:10078000012109B2344A9180417C917160E0334982
:10079000098809B2314A1181017BC27A41EA0221FA
:1007A0002E4A1180827B417B42EA012109B22B4A09
:1007B0005180027CC17B42EA012109B2274A918023
:1007C000417C917144E000BF00BF00BF0178491E29
:1007D000234A11701146097801EB8101214A32F850
:1007E000111009B21E4A127802EB82021D4B03EB74
:1007F00042021181017BC27A41EA0221184A127831
:1008000002EB820223F81210827B417B00E01EE0A3
:1008100042EA012109B2124A127802EB820203EB8A
:1008200042025180027CC17B42EA012109B20C4A9A
:10083000127802EB820203EB42029180417C084A6B
:10084000127802EB820203EB4202917100E000BFDA
:1008500000BF7047100100201A0100202401002071
:1008600036000020560100202DE9F0418AB00446F0
:100870000D4616461F46DDF840800121082001F094
:10088000FBFD0121480601F007FE0121480601F0A9
:1008900013FE00214FF0007001F00EFE03200890BF
:1008A00002208DF8240000208DF8260003208DF80A
:1008B000250001208DF8270008A92D4800F076FFBB
:1008C000092200212A4800F0B9FF09220121284805
:1008D00000F0B4FF00208DF81A0001208DF81B00F5
:1008E00000208DF81C008DF81D008DF81E008DF87D
:1008F0001F008DF816808DF817408DF818608DF860
:100900001950ADF8147005A91A4800F00CFB00202E
:100910008DF80E008DF80F0001208DF810000020DA
:10092000ADF80400ADF80600ADF80800ADF80A0017
:10093000ADF80C0001208DF8110001A800F0D6F9E7
:10094000012202210B4800F0E5FA14208DF8000086
:1009500004208DF8010000208DF8020001208DF8A0
:100960000300684601F01AFC00200AB0BDE8F081DF
:10097000000C02400064004010B50221084800F05D
:1009800039FA58B10221064800F05CF9054A002105
:10099000034800F052FB034800F006F810BD0000C9
:1009A00000680040BC0100200168A1F20121082973
:1009B00075D2DFE801F00420ADAD3C587591564981
:1009C000098809B2544A1181017BC27A41EA0221A5
:1009D000514A1180827B417B42EA012109B24E4A91
:1009E0005180027CC17B42EA012109B24A4A9180CE
:1009F000417C91718DE04949098809B2474A1181CA
:100A0000017BC27A41EA0221444A1180827B417B08
:100A100042EA012109B2414A5180027CC17B42EA8B
:100A2000012109B23D4A9180417C917171E03C49BC
:100A3000098809B23A4A1181017BC27A41EA02214E
:100A4000374A1180827B417B42EA012109B2344A54
:100A50005180027CC17B42EA012109B2304A918077
:100A6000417C917155E02F49098809B22D4A1181C5
:100A7000017BC27A41EA02212A4A1180827B417BB2
:100A800042EA012109B2274A5180027CC17B42EA35
:100A9000012109B2234A9180417C917139E037E00C
:100AA0002149098809B2204A1181017BC27A41EAB1
:100AB00002211D4A1180827B417B42EA012109B259
:100AC000194A5180027CC17B42EA012109B2164ACF
:100AD0009180417C91711CE01449098809B2134A44
:100AE0001181017BC27A41EA0221104A1180827B86
:100AF000417B42EA012109B20C4A5180027CC17B50
:100B000042EA012109B2094A9180417C917100E0D9
:100B100000BF00BF704700002E01002038010020F8
:100B2000420100204C0100207E01002088010020AD
:100B30002DE9F0418AB004460D4616461F46DDF801
:100B400040800121022001F097FC0121880601F07C
:100B5000A3FC0121880601F0AFFC00214FF080606A
:100B600001F0AAFC4FF44050089002208DF82400B8
:100B700000208DF8260003208DF8250001208DF837
:100B8000270008A92D4800F011FE09220C212B484E
:100B900000F054FE09220D21284800F04FFE0020ED
:100BA0008DF81A0001208DF81B0000208DF81C0024
:100BB0008DF81D008DF81E008DF81F008DF8168031
:100BC0008DF817408DF818608DF81950ADF8147035
:100BD00005A91B4800F0A7F90E208DF80E00002093
:100BE0008DF80F0001208DF810000020ADF80400F2
:100BF000ADF80600ADF80800ADF80A00ADF80C003D
:100C000001208DF8110001A800F070F801220221E6
:100C10000B4800F07FF940208DF8000004208DF88B
:100C2000010000208DF8020001208DF803006846C5
:100C300001F0B4FA00200AB0BDE8F08100040240DF
:100C400000680040B1F5007F3AD00FDC202928D0A1
:100C500006DC01291CD004291DD0082940D11DE043
:100C6000402921D0B1F5807F3AD126E0B1F5004F7F
:100C700031D006DCB1F5806F25D0B1F5006F2FD1F2
:100C800024E0B1F5803F12D0B1F5003F28D111E04A
:100C9000154A826025E00822C26022E01022C2606C
:100CA0001FE0082202611CE01022026119E0082204
:100CB000426016E01022426013E00422426010E01D
:100CC000042242600DE0042242600AE000228261B8
:100CD0000422426005E0002282610422426000E0BA
:100CE00000BF00BF704700000101010010B50021E6
:100CF000837A012202FA03F13D4A126842F00102AE
:100D00003B4B1A603A4A1C3212688A43384B1C33F8
:100D10001A60027BCAB9364A0C3212688A43344BD5
:100D20000C331A604288C38842EA0343304A403297
:100D3000847A42F834300288838842EA03432C4A9A
:100D40004032847A02EBC4025360027B012A19D13B
:100D5000274A0C3212680A43254B0C331A6042882A
:100D6000038842EA0343224A4032847A42F834300C
:100D7000C288838842EA03431D4A4032847A02EBE8
:100D8000C4025360C27A3AB9194A121D12688A43E2
:100D9000174B1B1D1A6006E0154A121D12680A4304
:100DA000134B1B1D1A60028932B9114A14321268A2
:100DB0008A430F4B14331A600289012A06D10C4A68
:100DC000143212680A430A4B14331A60427B012A18
:100DD00006D1074A1C3212680A43054B1C331A60BD
:100DE000034A126822F00102014B1A6010BD000094
:100DF0000066004070B504460D4600266069284034
:100E0000002871D0B5F5807F5CD010DC082D35D07E
:100E100006DC012D20D0022D24D0042D72D127E034
:100E2000102D31D0202D35D0402D6BD138E0B5F5C7
:100E3000004F60D009DCB5F5007F49D0B5F5806F73
:100E40004CD0B5F5006F5DD14FE0B5F5803F2DD0AA
:100E5000B5F5003F56D12FE0A0682D4900F0A6FA65
:100E6000064651E0E068032100F0A0FA06464BE098
:100E7000E068082100F09AFA064645E0E068102193
:100E800000F094FA06463FE02069032100F08EFA54
:100E9000064639E02069082100F088FA064633E06A
:100EA0002069102100F082FA06462DE060680821D2
:100EB00000F07CFA064627E06068102100F076FA20
:100EC000064621E0A069012100F070FA06461BE009
:100ED000A069022100F06AFA064615E0A069042123
:100EE00000F064FA06460FE00FE0A069702100F000
:100EF0005DFA064608E06068042100F057FA0646ED
:100F000002E0FFE7002600BF00E00026304670BD8B
:100F1000010101001AB143690B43436102E04369D7
:100F20008B434361704730B50246002000231468AC
:100F300024F002041460146844F00104146000E01A
:100F40005B1C546804F001041CB94FF6FF74A34203
:100F5000F6D1546804F001040CB900206CE08C79DF
:100F6000012C04D1146844F08004146003E0146878
:100F700024F080041460CC79012C04D1146844F06E
:100F80004004146003E0146824F0400414600C7AF8
:100F9000012C04D1146844F02004146003E01468A8
:100FA00024F0200414604C7A012C04D1146844F01D
:100FB0001004146003E0146824F0100414608C7AA8
:100FC000012C04D1146844F00804146003E0146890
:100FD00024F008041460CC7A012C04D1146844F085
:100FE0000404146003E0146824F0040414608C7892
:100FF000A407CD7844EA05640D7944EA05444D79A7
:1010000044EA05540D886D1E2C43D461146824F005
:1010100001041460002300E05B1C546804F0010428
:101020001CB14FF6FF74A342F6D1546804F00104DA
:101030000CB1002000E0012030BD10B500F5D873E0
:1010400003EB01131B6803F004031372137A53B903
:1010500000F5D87303EB01131B6840F2FF7404EA38
:101060005353136009E000F5D87303EB01131B68B9
:101070006FF0604404EAD303536000F5D87303EBC8
:1010800001131B6803F00203537200F5D87303EBDE
:1010900001135B6803F00F03937200F5D87303EB41
:1010A00001135B681B0AD37400F5D87303EB0113BB
:1010B0009B68D37200F5D87303EB01139B681C0A7D
:1010C000147300F5D87303EB01139B681C0C547365
:1010D00000F5D87303EB01139B681B0E937300F5A7
:1010E000D87303EB0113DB68D37300F5D87303EBFC
:1010F0000113DB681C0A147400F5D87303EB0113A9
:10110000DB681C0C547400F5D87303EB0113DB6827
:101110001B0E937421B9C36843F02003C36003E03E
:10112000036943F02003036110BD10B5024600209F
:10113000936803F08063B3F1806F00D110E093688F
:1011400003F00063B3F1006F01D1012008E0936860
:1011500003F08053B3F1805F01D1022000E004204E
:10116000042874D002F5C07303EB00131B6803F06E
:10117000010402F5C07303EB00131C600B7A7BB90A
:101180004B7A0C8843EA445302F5C07404EB001414
:101190002468234302F5C07404EB0014236010E0BC
:1011A0000B7A4C6843EAC4034C7A234302F5C074BB
:1011B00004EB00142468234302F5C07404EB00140C
:1011C00023608B7A03F00F038B7202F5C07303EB7D
:1011D00000135B6823F00F0402F5C07303EB0013E8
:1011E0005C6002F5C07303EB00135B688C7A2343E9
:1011F00002F5C07404EB001463608B7B1C064B7B10
:1012000044EA03440B7B44EA0323CC7A234302F5EC
:10121000C07404EB0014A3608B7C1C064B7C44EA76
:1012200003440B7C44EA0323CC7B234302F5C074C4
:1012300004EB0014E36002F5C07303EB00131B68BA
:1012400043F0010402F5C07303EB00131C6010BDF2
:101250001CB50121202001F00FF90420009001208D
:101260008DF8040000208DF8060003208DF805009D
:1012700001208DF807006946034800F097FA042121
:10128000024800F007FB1CBD0014024000000240B1
:1012900010B5024800F044F810BD0000900700208F
:1012A00010B5044604B910BD207B012803D10121EB
:1012B000022022699047207B18B900210220226970
:1012C000904700BFEFE7000010B504462079A071F9
:1012D0006079E0712068807C20712068C07C60713A
:1012E000207938B12089B0F5C87F05DA2089401C03
:1012F000208101E000202081607938B16089B0F55B
:10130000C87F05DA6089401C608101E000206081AF
:101310000421024800F0B5FAA07310BD000002409D
:1013200010B5044604B910BD0020207303F0BAF9CB
:101330002060034820612046FFF7C6FF00BFF2E7A8
:101340004917000800B97047417B027B914200D1E8
:10135000F9E7017B417300BFF5E7000000B9704772
:101360000949897A012900D101730749897A03293A
:1013700001D1002101730449897A022901D1002198
:10138000017300BFEBE700003805002010B50648E8
:10139000FFF7E4FF0448FFF7D5FF0348FFF794FF8A
:1013A0000148FFF77DFF10BD900700200246002096
:1013B00002EA01030BB1012000E00020704710B5E4
:1013C00002F0AEFA01F0E8F9FFF742FF10BD0000AD
:1013D0000246094B9A4201D2084801E006481038FB
:1013E00001F000531BB1064B0B40C36002E0044BFD
:1013F0000B408360704700001064024000600240B0
:101400007D0F7D0F21B1026842F00102026003E00E
:10141000026822F00102026070470000016821F0BA
:10142000010101600021016041608160C1600161D2
:10143000212141614A49884204D13D21484A103A5C
:1014400091608CE046491831884205D14FF47461AF
:10145000434A103A916082E041493031884205D1D7
:101460004FF474113E4A103A916078E03C4948319B
:10147000884205D14FF07461394A103A91606EE0AC
:1014800037496031884204D13649354A103AD16033
:1014900065E033497831884204D13349304A103A03
:1014A000D1605CE02E499031884204D12F492C4A0A
:1014B000103AD16053E02A49A831884205D14FF053
:1014C0003D51274A103AD16049E02949884204D168
:1014D0003D21274A083A116041E0254918318842E8
:1014E00005D14FF47461224A083A116037E020496F
:1014F0003031884205D14FF474111D4A083A116009
:101500002DE01B494831884205D14FF07461184ADB
:10151000083A116023E016496031884204D111492C
:10152000134A121F11601AE011497831884204D120
:101530000D490F4A121F116011E00D499031884288
:1015400004D10A490A4A121F116008E00849A8316B
:10155000884204D14FF03D51054A121F1160704777
:10156000106002403D000020400F002000003D20A0
:101570001064024021B1026842F48022026003E05C
:10158000026822F480220260704722B1036843F4AB
:101590000023036003E0036823F400230360016178
:1015A00070470146486880B27047014600200A68CB
:1015B00002F400220AB1012000E000207047000080
:1015C00010B500220268134B1A40CC680B68234305
:1015D0004C6923438C692343CC6923430C6A23431E
:1015E0004C6A23438C6A23434C6B23438C6B234309
:1015F0001A430260426922F00702D1E90B34234307
:101600001A4342610B6943604B6883608B68C36017
:1016100010BD00003F801CF0416070477047000023
:1016200010B5044604EBC400454901EB8000006896
:1016300004EBC401424A02EB810148604148006862
:1016400004EBC40102EB8101086004EBC400114605
:1016500001EB8000C07CC0F38010B0B104EBC4008B
:1016600001EB8000C07C20F0400004EBC40102EBE1
:101670008101C87404EBC400114601EB80000068CE
:1016800004EBC40102EB8101C86004EBC4002C49E7
:1016900001EB8000806990B304EBC401284A02EB9F
:1016A00081018869804758B304EBC400244901EBE9
:1016B0008000C07C20F02000203004EBC401204AD0
:1016C00002EB8101C87404EBC400114601EB8000F9
:1016D000C07C20F08000803004EBC40102EB81016B
:1016E000C87404EBC400114601EB8000006A28B303
:1016F00004EBC40102EB8101086A80471EE00FE0A1
:10170000FFE704EBC4000E4901EB8000C07C20F031
:10171000800004EBC4010A4A02EB8101C8740DE0A9
:1017200004EBC400064901EB8000C07C20F080007F
:1017300004EBC401024A02EB8101C87410BD000031
:10174000F40300203000002070B505460C4625B19A
:10175000012D0FD0022D26D119E024B90421124801
:1017600000F09AF805E0012C03D104210E4800F0A6
:1017700091F800BF24B904210B4800F08DF805E072
:10178000012C03D10421084800F084F800BF24B9DB
:101790000421054800F080F805E0012C03D1042164
:1017A000014800F077F870BD00000240F0B50A462D
:1017B00000210023002400BF3DE0012505FA01F3CC
:1017C000156805EA03049C4234D105684F000326DE
:1017D000BE40B543056015794E00B54006683543F7
:1017E00005601579012D02D01579022D16D1856875
:1017F0004F000326BE40B543856055794E00B54085
:10180000866835438560456801268E40B54345604E
:10181000456896798E40B6B235434560C5684F003D
:101820000326BE40B543C560D5794E00B540C668B5
:101830003543C560491C1029BFD3F0BDF0B5002366
:1018400000244D07ED0E02FA05F3CE1000F120053D
:1018500055F826504E07F70E0F26BE40B543CF1061
:1018600000F1200646F82750CE1000F1200555F86B
:10187000265045EA0304CE1000F1200545F8264025
:10188000F0BD0246002053690B400BB1012000E07F
:1018900000207047418370470183704742694A4086
:1018A0004261704710B52DED028B0446D4E9122138
:1018B000104603F02DFA08EE100AD4E91021104664
:1018C00003F026FA08EE900AF0EE480AB0EE680A35
:1018D00004F1A80000F0A8FC84ED0D0A94ED0D1AA7
:1018E000F0EE410A94ED0C1AB0EE410A04F1F0005A
:1018F00000F09AFC84ED140A94ED140ABDEEC00ABF
:1019000010EE100A01B2A4F85410BDEC028B10BD09
:1019100010B52DED028B044604F15800D0E91021DA
:10192000104603F0F5F908EE100A04F15800D0E96A
:101930000E21104603F0ECF908EE900AF0EE480A8A
:10194000B0EE680A04F59C7000F06EFC84ED210A8C
:1019500094ED211AF0EE410A94ED201AB0EE410AFE
:1019600004F5C07000F060FC84ED280A94ED280AAC
:10197000BDEEC00A10EE100A01B2A4F8A410BDEC2E
:10198000028B10BD10B5024800F09EF810BD00009B
:10199000C005002010B50446207928B90021A4F81C
:1019A0005410A4F8A41010BD2046FFF77BFF20467A
:1019B000FFF7AEFF00BFF6E710B5044604B910BD4F
:1019C0003D4890ED000AB5EEC00AF1EE10FA08D1DC
:1019D000A068008800EE100AB8EE400A364880ED94
:1019E000000A364890ED000AB5EEC00AF1EE10FA92
:1019F00008D1A06D008800EE100AB8EE400A2F480A
:101A000080ED000AA068B0F9020000EE900AF8EE3E
:101A1000E00A9FED2B1A60EE810AB0EE600A04F135
:101A20000C0003F039F8A06DB0F9020000EE900A46
:101A3000F8EEE00A9FED221A60EE810AB0EE600A2D
:101A400004F15C0003F028F894ED040A84ED0C0A1C
:101A500094ED180A84ED200A94ED360ADFED190A98
:101A600020EE200A84ED0B0A94ED5A0ADFED150AE8
:101A700020EE200A84ED1F0AA268128991B2A268A2
:101A800010880D4A92ED000A04F1380200F05CFB68
:101A9000C4E91001A26D128991B2A26D1088074AA3
:101AA00092ED000A04F1880200F04EFB04F15802A6
:101AB000C2E90E0100BF82E79000002094000020E0
:101AC000F1A23E3B00007A4410B5044604B910BDB3
:101AD0000020207102F0E6FD2060244904F10C0092
:101AE00003F000F8214904F15C0002F0FBFF02F072
:101AF000C5FDA06002F0C6FDA065DFED1D0A9FEDEB
:101B00001D0A1D4A002104F1A80000F085FCDFED4C
:101B10001B0AB1EE080A1A4A002104F1F00000F095
:101B20007BFCDFED130A9FED130A164A002104F532
:101B30009C7000F071FCDFED110AB1EE080A124A48
:101B4000002104F5C07000F067FC9FED100A84EDE1
:101B5000720A9FED0F0A84ED730A0021A1638820A9
:101B600001512046FFF728FF00BFB0E7E44E000810
:101B70000000FA4400007A46B44E0008CDCC4C3E3A
:101B8000CC4E0008C04E0008D84E00080050C34795
:101B90000000000000B9704741790279914200D1FC
:101BA000F9E70179417100BFF5E7000010B500B910
:101BB00010BD017921B90022A0F85420A0F8A4207A
:101BC0000179012907D100228264C264002300F157
:101BD00058010B644B640179022963D10168898A39
:101BE00001F4007151B13649098801F4007129B935
:101BF0003449097811B90121324A11700168898A82
:101C00002F4A11802F49097800294BD00168898A11
:101C100001F40071002940D02B490978E9BB2B4A17
:101C200006CA002461406240114313D12749D1E91B
:101C300000314CF250341B1941F10001234AC2E932
:101C400000312349D1E90021121941F10001204B53
:101C5000C3E900211D49D1E900210024624061400F
:101C60000A4315D01949D1E900414CF25033E31A27
:101C700061F10001154AC2E900311549D1E900318D
:101C80004CF250341B1B61F10001114AC2E90031D2
:101C90000D490978491C0C4A117000210A4A11703B
:101CA000084A1170094A0ACAC0E912130849D1E961
:101CB000003200F15801C1E9103200BF78E700009E
:101CC000980000209A000020B0000020A000002012
:101CD000A800002000B970470949897A012901D17B
:101CE000022101710649897A022901D1012101717C
:101CF0000349897A032901D10021017100BFEAE774
:101D00003805002010B50848FFF7E4FF0648FFF744
:101D100041FF0548FFF750FE0348FFF747FF024821
:101D2000FFF738FE10BD0000C005002000BF0E4ABE
:101D300011684FF0E02252694FF0E0239B69D21AFC
:101D40004FF47A735A434FF0E0235B69B2FBF3F22E
:101D500001EB4103C3EBC11302EBC300024A12685B
:101D60009142E4D1704700003000002000B58BB0F4
:101D70000121082000F090FB0121080200F07CFB0B
:101D80000121802000F078FB02220C213C48FFF763
:101D900055FD4FF48050099002208DF82800032053
:101DA0008DF8290000208DF82A0001208DF82B00E5
:101DB00009A93348FFF7FAFC022200213148FFF756
:101DC0003DFD0120099002208DF8280003208DF8A8
:101DD000290000208DF82A0001208DF82B0009A988
:101DE0002848FFF7E3FCB320ADF818000020ADF859
:101DF0001A0040F6B73007900020ADF8200006A981
:101E0000214800F0D3FF6020ADF804000120ADF8B8
:101E100006000020ADF8100040F28A70039001A97E
:101E2000194800F019FF0821174800F065FF01214B
:101E3000154800F08DFE0121134800F098FE602047
:101E4000ADF804000120ADF806000020ADF8100048
:101E500040F28A70039001A90B4800F057FF082157
:101E6000094800F08FFF0121074800F071FE0121B1
:101E7000054800F07CFE00F081FC0BB000BD0000C6
:101E8000001C024000200240000C004000BFFEE7A2
:101E900070B50024A52506E1864802F0AFFA044695
:101EA0008548006890F8860006287DD2DFE800F0BB
:101EB00003223C6A83B1AC4216D101207E490968F5
:101EC00081F886007C480068B0F887107A4800687E
:101ED000B0F88700401C784A1268A2F8870076485C
:101EE0000068801D445404E0002073490968A1F88B
:101EF0008700D7E07048006884806F480068B0F8B9
:101F000087106D480068B0F88700401C6A4A126864
:101F1000A2F8870068480068801D44540220664982
:101F2000096881F88600BDE063480068808840EA5F
:101F300004206149096888805F480068B0F887100C
:101F40005D480068B0F88700401C5B4A1268A2F840
:101F5000870059480068801D4454574800688088AD
:101F6000772805D203205449096881F8860008E0E3
:101F700000205149096881F886004F490968A1F895
:101F800087008FE04C480068B0F887104A48006826
:101F9000B0F88700401C484A1268A2F887004648FB
:101FA0000068801D445400E072E004204249096842
:101FB00081F8860076E040480068B0F887103E4817
:101FC0000068B0F88700401C3B4A1268A2F88700FE
:101FD00039480068801D445437480068B0F88700CD
:101FE000052815D1052134480068801D02F0C4FD84
:101FF00028B105203049096881F8860008E00020F2
:102000002D49096881F886002B490968A1F88700E5
:1020100048E029480068B0F88710274800688088A1
:102020000930814210D224480068B0F88710224855
:102030000068B0F88700401C1F4A1268A2F88700A9
:102040001D480068801D44541B480068B0F8871084
:102050001948006880880930814218D30020164949
:10206000096881F8860014490968A1F887001248B8
:102070000068808800F109010F480068801D02F0A7
:102080005BFD20B10C480068801D02F037FC09E0C0
:1020900000200949096881F8860007490968A1F804
:1020A000870000BF00BF034802F020FA00287FF439
:1020B000F3AE70BDA40B0020D400002010B5114871
:1020C000406810490860FFF731FE0E4948600E492C
:1020D000C8600C4840680B490968401A0949886083
:1020E00001F00AFCFFF70EFEFFF750F9FFF71EFEA6
:1020F0000549086108460069C968401A02494861F3
:1021000010BD000098050020A405002010B5FFF7C1
:102110000DFE06490860FFF709FE044948600846BD
:1021200040680968401A0149886010BDA405002074
:1021300070477047704710B502F092F802F09EFCAD
:1021400010BD704700BFFEE770B52DED028B054650
:102150000E461446B0EE408AA81BB0F5805F03DD42
:102160002068401E206006E0A81B10F5805F02DAA0
:102170002068401C20602068C0EB4030284400EEFE
:10218000100AB8EEC00A30EE480A10EE101A0846DF
:1021900002F03CFEBDEC028B70BD704770B50021B3
:1021A00000230F22C4781CB3174C246804F4E064A5
:1021B000C4F5E064C4F30721C1F10404E3B20A41A9
:1021C00044789C40E1B28478144021430C07210EEE
:1021D0000E4C05786155047804F01F050124AC40CD
:1021E00005786D11AD0005F1E025C5F8004109E065
:1021F000047804F01F050124AC40054D06787611E3
:1022000045F8264070BD00000CED00E000E400E061
:1022100080E100E002490143024A1160704700007A
:102220000000FA050CED00E0B0EE401A10B99FED89
:10223000790A704790ED100A80ED110A90ED0F0AAF
:1022400080ED100AC0ED060A80ED071A30EEC10AD3
:1022500080ED0F0A0178002975D190ED010AD0EDCB
:102260000F1A20EE210A80ED090A90ED0A0AD0ED3E
:10227000021A90ED0F2A01EE820A80ED0A0A90ED13
:102280000D0A80ED0E0A90ED0C0A80ED0D0A90ED1E
:102290000F0AD0ED101A30EE610A80ED0C0A90EDB5
:1022A000030AD0ED0C1A20EE210A80ED0B0A90ED06
:1022B0000A0AD0ED051AB4EEE10AF1EE10FA04DDD7
:1022C00090ED050A80ED0A0A10E090ED0A0AD0EDC3
:1022D000051AF1EE611AB4EEE10AF1EE10FA05D238
:1022E00090ED050AB1EE400A80ED0A0A90ED090A68
:1022F000D0ED0A1A30EE210AD0ED0B1A30EE210A89
:1023000080ED080A90ED080AD0ED041AB4EEE10A57
:10231000F1EE10FA04DD90ED040A80ED080A76E093
:1023200090ED080AD0ED041AF1EE611AB4EEE10A5C
:10233000F1EE10FA6BD290ED040AB1EE400A80ED96
:10234000080A64E0FFE70178012960D190ED0F0AE7
:10235000D0ED101A30EE610AD0ED011A20EE210AFC
:1023600080ED090A90ED020AD0ED0F1A20EE210A45
:1023700080ED0A0A90ED0D0A80ED0E0A90ED0C0A30
:1023800080ED0D0A90ED0F0AD0ED101AB0EE002A84
:1023900002EE610AD0ED111A30EE210A80ED0C0A2E
:1023A00090ED030AD0ED0C1A20EE210A80ED0B0A05
:1023B00090ED090AD0ED0A1A30EE210AD0ED0B1A81
:1023C00030EE210AD0ED081A30EE210A80ED080A1D
:1023D00090ED080AD0ED041AB4EEE10AF1EE10FA1D
:1023E00004DD90ED040A80ED080A10E090ED080A83
:1023F000D0ED041AF1EE611AB4EEE10AF1EE10FA32
:1024000005D290ED040AB1EE400A80ED080A90ED85
:10241000080A0EE70000000000B102B97047017021
:1024200092ED001A80ED011A92ED011A80ED021A68
:1024300092ED021A80ED031A80ED040AC0ED050A40
:102440009FED0C1A80ED0E1A80ED0D1A80ED0C1A1E
:102450009FED081A80ED081A80ED0B1A80ED0A1A1C
:1024600080ED091A80ED111A80ED101A80ED0F1A17
:1024700000BFD3E70000000029B1064A12680243FA
:10248000044B1A6004E0034A12688243014B1A604D
:10249000704700003038024029B1064A12680243F2
:1024A000044B1A6004E0034A12688243014B1A602D
:1024B000704700004038024029B1064A12680243C2
:1024C000044B1A6004E0034A12688243014B1A600D
:1024D000704700002038024029B1064A12680243C2
:1024E000044B1A6004E0034A12688243014B1A60ED
:1024F000704700004438024029B1064A126802437E
:10250000044B1A6004E0034A12688243014B1A60CC
:102510007047000024380240F0B50021002200245A
:10252000022500260223324F3F6807F00C0121B13B
:10253000042905D0082937D105E02E4F076036E081
:102540002D4F076033E02A4F3F1F3F68C7F3805687
:10255000274F3F1F3F6807F03F036EB1264FB7FB81
:10256000F3F7DFF88CC0ACF1040CDCF800C0CCF35E
:10257000881C07FB0CF40CE01E4FB7FBF3F7DFF8E9
:1025800070C0ACF1040CDCF800C0CCF3881C07FB75
:102590000CF4174F3F1F3F68C7F301477F1C7D00B6
:1025A000B4FBF5F7076002E0124F076000BF00BF01
:1025B0000F4F3F6807F0F0010909104F7A5C076878
:1025C000D74047600A4F3F6807F4E051890A0B4F34
:1025D0007A5C4768D7408760054F3F6807F46041E1
:1025E000490B064F7A5C4768D740C760F0BD0000D2
:1025F000083802400024F400001BB700140000203B
:1026000070B590B004460E46154601214A48FFF7C2
:1026100033FF01211020FFF75FFF01211020FFF79A
:102620006BFF00211020FFF767FF07221146434888
:10263000FFF704F980200E9002208DF83C00002066
:102640008DF83E0003208DF83D0000208DF83F00FE
:102650000EA93A48FFF7AAF8394800F099FD394821
:102660000A900020ADF82C00ADF82E004FF48060E9
:10267000ADF830000420ADF832000020ADF8340091
:102680000AA92F4800F04CFE012240212C4800F0FE
:1026900076FD10212A4800F05DFD012240F2244120
:1026A000274800F017FE0121254800F05CFD252099
:1026B0008DF83C0004208DF83D0000208DF83E0090
:1026C00001208DF83F000FA8FFF768FD1E48FEF7B8
:1026D000A5FE4FF0006001901948001D0290039480
:1026E00000200490059506904FF48060079000202C
:1026F000089009904FF480700A904FF440300B908E
:1027000000200C900D900E900F9001A90E48FEF73E
:1027100057FF002231460C48FEF737FF01210A48D7
:10272000FEF728FF00210848FEF76CFE012106484D
:10273000FEF768FE10B070BD0200400000040240C9
:1027400000100140A08601004064024010B501F075
:10275000ADFF4FF480620649064801F06CFE4FF46D
:1027600000720549A1F5007000F0DAFB10BD000011
:10277000BC0B0020A40B0020A409002010B54FF4CE
:10278000E171044800F00DFB40F21A41014800F0ED
:102790000AFB10BD000C00401CB501212020FFF7F2
:1027A0006BFE0420009001208DF8040000208DF8BD
:1027B000060003208DF8050001208DF8070069460A
:1027C0000348FEF7F3FF04210248FFF763F81CBD3E
:1027D000001402400000024000B101B970470278C5
:1027E000437842EA0322C2F30A020A804278D210F6
:1027F000837842EA4312C2F30A024A808278921135
:10280000C37842EA8302037942EA8322C2F30A02CE
:102810008A8002795210437942EAC312C2F30A0253
:10282000CA804279C2F301128A7242791211930866
:10283000CB728279C37942EA032212B28A81027A88
:10284000437A42EA032213B201F10C02CB81827A6D
:10285000C37A42EA032213B201F10C020B82037B1A
:102860008B74437BCB74827BC37B42EA03228A82D4
:10287000027C437C42EA032212B20A810A88A2F552
:10288000806212B20A804A88A2F5806212B24A803F
:102890008A88A2F5806212B28A80CA88A2F5806214
:1028A00012B2CA800A89A2F5806212B20A8100BF00
:1028B00094E7000070B5002400BF1EE000F0EEF8C1
:1028C000054604EB44000E4901EB80008068281A9D
:1028D00004EB44010A4A02EB8101C98888420AD309
:1028E00004EB4400114601EB8000856004EB4401D9
:1028F00052F821008047601CC4B2072CDED370BDA3
:102900003C000020002000BF1FE000EB4001104A07
:1029100002EB810189884FF47A7292FBF1F100EBAE
:1029200040020B4B03EB8202D18000EB40011A46C0
:1029300002EB8101C988012905DA012100EB40027F
:1029400003EB8202D180411CC8B20728DDD3704757
:102950003C0000200CB50020019000904148006828
:1029600040F480303F49086000BF3E48006800F4F2
:10297000003000900198401C0190009818B901980F
:10298000B0F5A04FF1D13748006800F4003010B125
:102990000120009001E0002000900098012860D103
:1029A00030484030006840F080502E494031086087
:1029B0002D48006840F440402B4908602948083001
:1029C00000682849083108600846006840F4004063
:1029D00008600846006840F4A05008602348091FBA
:1029E0000860081F006840F08070091F086000BF81
:1029F0001C48006800F000700028F9D01A480068F0
:102A000040F480301849086000BF1748406800F45F
:102A100080300028F9D01448006840F40030124992
:102A2000086000BF1048406800F400300028F9D06A
:102A300040F205700E4908600A480830006820F02E
:102A400003000849083108600846006840F00200A9
:102A5000086000BF03480830006800F00C00082838
:102A6000F8D10CBD0038024000700040062D40082F
:102A7000003C0240042808D14FF0E021096941F0F0
:102A800004014FF0E022116107E04FF0E0210969F5
:102A900021F004014FF0E022116170470148006805
:102AA000704700002C00002010B505480068401C4D
:102AB0000349086002F038F801F058FD10BD00002D
:102AC0003000002010B51548006840F4700013492C
:102AD00008601348006840F00100114908600020B8
:102AE0000F49083108600E4800680E4908400C493B
:102AF00008600D48091D0860081F006820F4802048
:102B0000091F0860002006490C310860FFF722FF0A
:102B10004FF0006001498039086010BD88ED00E089
:102B200000380240FFFFF6FE1030002410B50121EE
:102B3000064800F037F838B10121044800F014F8D5
:102B40000021024800F013F810BD00000010004002
:102B500021B1028842F08002028004E002884FF630
:102B60007F731A4002807047CA430282704721B1C6
:102B7000028842F00102028004E002884FF6FE73F0
:102B80001A400280704731B1B0F8442042F400424C
:102B9000A0F8442005E0B0F84420C2F30E02A0F8EB
:102BA0004420704730B50246002000230024158AD7
:102BB00005EA0103958905EA010413B10CB101206E
:102BC00000E0002030BD000070B50024002200238A
:102BD000058C4FF6FE7635400584028C8388048B85
:102BE0004FF68F752C40B51E2C400D882C43751E5A
:102BF0002A408D892A434D882A43104DA84202D08D
:102C00000F4DA84213D14FF6F7752A40CD892A43BC
:102C10004FF6FB752A408D882A434FF6FF652B40FF
:102C20004FF6FF552B400D8A2B434D8A2B43838053
:102C300004838D684563028470BD0000000001407C
:102C4000000401400A460021018B4FF6F77319403A
:102C5000114301837047000070B500240022002357
:102C6000058C4FF6FF6635400584028C8388848B83
:102C70004FF68F752C404FF6FC752C400D882C4379
:102C80004FF6FF552A408D894FF6FF7606EA052557
:102C90002A434D8806EA05252A43154DA84202D04D
:102CA000144DA8421DD14FF2FF752A40CD894FF631
:102CB000FF7606EA05252A434FF6FF352A408D8820
:102CC00006EA05252A434EF6FF752B404DF6FF75A3
:102CD0002B400D8A06EA05152B434D8A06EA051599
:102CE0002B43838084838D68C563028470BD00009C
:102CF00000000140000401400A460021818B4FF68C
:102D0000F7731940114381837047000070B50022AA
:102D100000230024058C4EF6FF7635400584038C95
:102D20008488828B48F6FF752A404FF6FF452A407B
:102D30000D884FF6FF7606EA05252A434DF6FF7506
:102D40002B408D8906EA05352B434D8806EA05356B
:102D50002B430A4DA84202D0094DA84208D14BF698
:102D6000FF752C400D8A4FF6FF7606EA85152C4339
:102D7000848082838D680564038470BD00000140F7
:102D8000000401400A460021818B4FF2FF73194075
:102D90004FF6FF7303EA02231943818370474163AF
:102DA0007047C163704701647047000000220288C9
:102DB000184B98420ED0184B98420BD0B0F1804F70
:102DC00008D0164B984205D0154B984202D0154BAF
:102DD000984204D14FF68F731A404B881A43124B16
:102DE000984207D0114B984204D04FF6FF431A4047
:102DF0000B891A4302804B68C3620B880385054B1D
:102E0000984202D0044B984201D18B7A0386012369
:102E1000838270470000014000040140000400402C
:102E200000080040000C004000100040001400406A
:102E300010B540F22551344800F022FA18B132485A
:102E400000F0D8FA5FE040F224412F4800F018FA71
:102E5000002858D02C4800F0CDFA2C48FEF7A5FBEE
:102E600040BB00212948FEF7CDFA2848FEF799FB20
:102E7000C0F124002649088024212448FEF7CCFB19
:102E80002248006840F400202049086021491F487A
:102E9000FEF79EFA01211D48FEF7B4FA1C4800888F
:102EA000122830D11C491D48FFF796FC0020FEF780
:102EB000B7FB28E000211548FEF7A4FA1348FEF7F7
:102EC00070FBC0F124001249088024210F48FEF74E
:102ED000A3FB0E48006820F400200C4908600D494F
:102EE0000A48FEF775FA01210848FEF78BFA0848F0
:102EF0000088122807D1084908482430FFF76CFCE5
:102F00000020FEF78DFB10BD001001404064024020
:102F10003800002000003010380500204E05002049
:102F200070B596B004460D46164601214FF040108C
:102F3000FFF7A2FA01212020FFF7CEFA012120207D
:102F4000FFF7DAFA00212020FFF7D6FA082209213C
:102F50004448FEF773FC08220E214248FEF76EFC3F
:102F60004FF48440149002208DF8540003208DF813
:102F7000550000208DF8560001208DF8570014A947
:102F80003848FEF713FC4FF4E13010900020ADF804
:102F90004400ADF84600ADF848000C20ADF84A00FA
:102FA0000020ADF84C0010A92F4800F0B9F901221B
:102FB00040212D4800F0E3F810212B4800F0CAF81A
:102FC000012240F22441284800F084F901212648DA
:102FD00000F0C9F847208DF83C0002208DF83D0034
:102FE00000208DF83E0001208DF83F000FA8FFF76C
:102FF000D5F81E48FEF712FA4FF0206000901A48EC
:10300000001D01900294002003904FF40070049082
:10301000002005904FF480600690002007900890F3
:103020004FF4807009904FF440300A9000200B90CC
:103030000C900D900E9069460C48FEF7C1FA0022E4
:1030400029460A48FEF7A1FA01210848FEF792FA3C
:1030500000210648FEF7D6F901210448FEF7D2F90F
:1030600016B070BD001802400014014028640240F0
:1030700010B540F22551304800F002F918B12E4841
:1030800000F0B8F956E040F224412B4800F0F8F87F
:1030900000284FD0284800F0ADF92848FEF785FAFF
:1030A00020BB00212548FEF7ADF92448FEF779FA48
:1030B000C0F50070224908804FF400711F48FEF7E8
:1030C000ABFA1E48006840F400201C4908601D4906
:1030D0001A48FEF77DF901211848FEF793F91848C0
:1030E00002881949194801F0B1F923E00021134879
:1030F000FEF788F91148FEF754FAC0F50070104940
:1031000008804FF400710D48FEF786FA0B480068FE
:1031100020F40020094908600A490848FEF758F9D8
:1031200001210648FEF76EF905480288084907485C
:1031300001F08CF910BD0000001401402864024029
:10314000E400002000003010A4070020A40B0020A1
:10315000A409002001F40072B2F5007F00D100BF85
:10316000CA430280704721B1828942F400528281B1
:1031700004E082894DF6FF731A40828170471AB1CC
:10318000838A0B43838202E0838A8B438382704766
:1031900010B504463248844208D101211020FFF7BF
:1031A000ABF900211020FFF7A7F957E02D48844222
:1031B00009D101214804FFF77FF900214FF40030C5
:1031C000FFF77AF94AE02848844209D101218804AE
:1031D000FFF772F900214FF48020FFF76DF93DE011
:1031E0002248844209D10121C804FFF765F9002172
:1031F0004FF40020FFF760F930E01D48844209D108
:1032000001210805FFF758F900214FF48010FFF75E
:1032100053F923E01748844208D101212020FFF709
:103220006BF900212020FFF767F917E0124884426C
:1032300009D101218807FFF73FF900214FF08040B5
:10324000FFF73AF90AE00D48844207D10121400511
:10325000FFF732F900216005FFF72EF910BD0000DD
:10326000001001400044004000480040004C004075
:10327000005000400014014000780040007C0040F5
:1032800070B50246002400230025002040F66A168F
:10329000B14200D100BFC1F3421501F01F03012666
:1032A00006FA03F3012D02D19689334006E0022D80
:1032B00002D1168A334001E0968A33400C1201266F
:1032C00006FA04F41688344013B10CB1012000E072
:1032D000002070BDF0B50346002400260025002024
:1032E00040F66A17B94200D100BF1846C1F3421434
:1032F00001F01F06012707FA06F5012C01D10C3059
:1033000004E0022C01D1103000E014301AB107683B
:103310002F43076002E00768AF430760F0BD00007D
:103320002DE9FF4705460E460024A14600BFA046F2
:10333000B08900B100BF2C8A24F44054F0880443C3
:103340002C82AC8941F20C608443B08831890843F7
:10335000718908430443AC81AC8A24F44074B08979
:103360000443AC826846FFF7D7F82048854202D074
:103370001F48854202D1DDF80C9001E0DDF808908D
:10338000A88900F4004040B109EBC90000EB091026
:1033900031684900B0FBF1F707E009EBC90000EB29
:1033A000091031688900B0FBF1F76420B7FBF0F039
:1033B00004012009642101FB1078A88900F4004071
:1033C00040B1322000EBC800B0FBF1F000F0070084
:1033D000044308E0322000EB08106421B0FBF1F058
:1033E00000F00F0004432C81BDE8FF87001001406E
:1033F0000014014001468888C0F30800704700BFF0
:10340000FEE7000010B5024800F0D2F810BD000041
:10341000B811002010B5044604B910BD04F108002D
:1034200000F09CFA04F1D80000F0BFFA00BFF4E706
:1034300000B97047534991ED000AB5EEC00AF1EEAC
:1034400010FA08D18168098800EE101AB8EE400A17
:103450004C4981ED000A4C4991ED000AB5EEC00AD5
:10346000F1EE10FA09D1D0F8D810098800EE101A40
:10347000B8EE400A444981ED000A444991ED000A42
:10348000B5EEC00AF1EE10FA09D1F4210958098805
:1034900000EE101AB8EE400A3C4981ED000A3C49A2
:1034A00091ED000A3B4981ED000A3B4991ED000A8C
:1034B000374981ED000A394991ED000A3449D1EDCF
:1034C000000A20EE200A3549D1ED010A314991ED7B
:1034D000001A01EE200A8168B1F9021000EE901A7C
:1034E000F8EEE00A9FED2E1A60EE810A2B4991ED6D
:1034F000021A00EE810A284981ED000A91ED000AC6
:1035000080ED040A816809888268B2F90820891A66
:10351000B1F5805F03DDC169491EC1610BE08168BF
:1035200009888268B2F90820891A11F5805F02DAE9
:10353000C169491CC161C169C1EB4131826812880E
:10354000114400EE101AB8EEC00A0E49D1ED000A7F
:1035500030EE600A80ED2E0A90ED150ADFED110ABB
:1035600020EE200A80ED030AD0ED040A9FED0E1A2A
:1035700080EE810ADFED0D0A20EE200A80ED2D0A93
:1035800000BF56E7EC000020F0000020F40000200F
:10359000FC000020F8000020000100203C52000840
:1035A000F1A23E3B00007A44000070427CD9203EEC
:1035B00010B5044604B910BD0120207101F072F865
:1035C000206001F063F8A06001F064F8C4F8D8004E
:1035D00001F064F8F4210851DFED290A9FED290A72
:1035E000294A002104F12400FEF716FFDFED270A27
:1035F0009FED270A274A002104F16C00FEF70CFF1B
:10360000DFED220A9FED220A234A002104F5AC7067
:10361000FEF702FFDFED1A0A9FED1A0A1F4A00218A
:1036200004F58870FEF7F8FEDFED180A9FED180A22
:103630001B4A002104F5F470FEF7EEFEDFED100AE0
:103640009FED100A174A002104F5D070FEF7E4FE42
:103650009FED150A84ED300A9FED140A84ED310ABE
:103660009FED130A84ED900A9FED100A84ED910AF4
:103670002046FFF7DDFE0F49D420015100BF9AE735
:103680000000FA4400409C46F4510008CDCC4C3E6A
:103690000000C842185200082452000800520008D6
:1036A000305200080C52000800426F490000000030
:1036B0000042EF484917000800B970474179027984
:1036C000914200D1F9E70179417100BFF5E70000AF
:1036D00010B5044604B910BD2079012809D19FED29
:1036E000720A724880ED000A9FED6F0A704880ED03
:1036F000000A207902287DD12068007D00F080003A
:1037000020B16C48007800F0800098B12068007DFE
:1037100000F0400020B16748007800F0400048B158
:103720002068808A00F4007060B16248008800F46C
:10373000007038B96048007820B901205E490870EF
:103740005E4908702068808A5A4908805A48007883
:1037500000284FD02068007D00F04000F8B15848A4
:103760000078E0B9514890ED000ADFED560A30EEDE
:10377000200A80ED000A94ED300AB0EE401A94ED74
:10378000310AF0EE400A90ED000A00F029FF4748A8
:1037900080ED000A4A480078401C494908702068BA
:1037A000007D00F08000F8B145480078E0B93F485E
:1037B00090ED000ADFED430A30EE600A80ED000A6A
:1037C00094ED300AB0EE401A94ED310AF0EE400A62
:1037D00090ED000A00F004FF344880ED000A3848FC
:1037E0000078401C364908702068808A00F4007018
:1037F000F0B300E04CE032480078C8BB2C4890EDB4
:10380000000AB5EEC00AF1EE10FA16D190ED000AEA
:10381000DFED2C0A30EE200A80ED000A94ED900ACC
:10382000B0EE401A94ED910AF0EE400A90ED000AD5
:1038300000F0D6FE1E4880ED000A1D4890ED000AFB
:10384000B5EEC00AF1EE10FA18D090ED000ADFEDE7
:103850001D0A30EE600A80ED000A94ED900AB0EE89
:10386000401A94ED910AF0EE400A90ED000A00E053
:1038700009E000F0B5FE0E4880ED000A104800781F
:10388000401C0F49087000200D4908700A49087053
:10389000064890ED000A84ED2F0A054890ED000AD5
:1038A00084ED8F0A00BF16E700000000040100202D
:1038B000080100200C0100200E010020E80000207B
:1038C0000F0100200042EF4800B970470949897A8A
:1038D000032901D1002101710649897A022901D108
:1038E000012101710349897A012901D10221017164
:1038F00000BFEAE73805002010B50848FFF7E4FFED
:103900000648FFF7D9FE0548FFF792FD0348FFF789
:10391000DFFE0248FFF77EFD10BD0000B811002059
:103920001CB501212020FEF7A7FD042000900120F6
:103930008DF8040000208DF8060003208DF80500A6
:1039400001208DF8070069460348FDF72FFF042189
:103950000148FDF79FFF1CBD0000024010B5044662
:1039600094ED2D1AF0EE410A94ED2C1AB0EE410AB6
:1039700004F16400FEF758FC84ED030A94ED031A89
:10398000F0EE410A94ED021AB0EE410A04F11C0077
:10399000FEF74AFC84ED040A94ED040ABDEEC00A69
:1039A00010EE100A00B2208310BD10B5044694ED4D
:1039B000591AF0EE410A94ED581AB0EE410A04F19A
:1039C0008000FEF731FC84ED030A94ED031AF0EE5B
:1039D000410A94ED021AB0EE410A04F13800FEF7F4
:1039E00023FC84ED040A94ED040ABDEEC00A10EE37
:1039F000100A00B2208394ED591AF0EE410A94EDBA
:103A0000581AB0EE410A04F58870FEF70DFC84EDFB
:103A10000A0A94ED0A1AF0EE410A94ED091AB0EE82
:103A2000410A04F1C800FEF7FFFB84ED0B0A94ED98
:103A30000B0ABDEEC00A10EE100A01B2A18610BD3D
:103A4000EFF3108070472DED020B019820F000403D
:103A500001909DED000B02B0704780F31088704715
:103A600030B58BB005460C4601214020FEF714FD11
:103A700001218020FEF700FD01214020FEF71CFD02
:103A800000214020FEF718FD092206212048FDF7FD
:103A9000D5FE4020099002208DF8280003208DF8E3
:103AA000290000208DF82A0002208DF82B0009A99A
:103AB0001748FDF77BFE6020ADF804000120ADF84B
:103AC00006000020ADF8100001A91248FFF77CF8AD
:103AD00008211048FFF7B6F801210E48FFF738F823
:103AE000681E0790601E80B2ADF818000020ADF887
:103AF0001A00ADF8200006A90648FFF757F9012182
:103B00000448FFF734F800F007F80BB030BD0000B0
:103B1000001C02400018004010B500210148FFF7CA
:103B20003EF910BD0018004070B504460D4604482B
:103B30000480294602482838FFF731F970BD00009B
:103B40002818004010B5024800F0BAF910BD000076
:103B5000D00100202DE9F04107460C4615461E46CF
:103B600017B10CB105B10EB9BDE8F0810B48007872
:103B7000012806D133462A462146384600F054FA39
:103B800009E006480078042805D133462A46214634
:103B9000384600F027FA00BFE6E7000037000020B3
:103BA00000B970470168897A022903D10421104ABB
:103BB00011700DE00168897A032903D101210C4AB3
:103BC000117005E00168897A012901D1084A117054
:103BD00007490978012902D10221017205E004494F
:103BE0000978042901D10221017200BFD9E7000040
:103BF0003700002030B52DED088B85B005469FEDD0
:103C00006D0AB0EE408A9FED6B0AB0EE409A9FEDD0
:103C1000690AF0EE408A002001900290039004901F
:103C20000024D5ED7E1AB0EE611AD5ED7D1AF0EEC6
:103C3000610AD5ED7C1AB0EE610A01A800F02EFBF6
:103C4000287A03281AD100BF12E001A800EB8400F3
:103C500090ED000ABDEEC00A10EE100A01B204EBAE
:103C6000840205F10C0000EB82000182601CC4B2EA
:103C7000042CEADB05B0BDEC088B30BD002434E039
:103C800001A800EB840090ED000A04EB840105F12B
:103C90000C0000EB810080ED030A04EB840205F1C7
:103CA0000C0000EB820090ED030A10EE101A08469B
:103CB00001F000F841EC1B0BB0EE4B0AF0EE6B0A82
:103CC000FFF7C1FEB0EE40AAF0EE60AA51EC1A0B6D
:103CD00000F06AFF08EE900AB4EEE88AF1EE10FAFE
:103CE00001D2B0EE688A601CC4B2042CC8DBB1EE0D
:103CF000000AB4EEC08AF1EE10FA1DDDB1EE000A42
:103D0000C0EE080AB0EE609A002413E004EB8401D0
:103D100005F10C0000EB810090ED030A20EE090A8A
:103D200004EB840105F10C0000EB810080ED030A37
:103D3000601CC4B2042CE9DB00241DE004EB840207
:103D400005F10C0101EB820191ED031AF0EE410A3D
:103D500004EB840205F10C0101EB820191ED021AE2
:103D6000B0EE410A04EBC40205F15C0101EBC200B4
:103D7000FEF75AFA601CC4B2042CDFDB002415E005
:103D800004EBC40105F15C0000EBC10090ED080AF2
:103D9000BDEEC00A10EE100A01B204EB840205F178
:103DA0000C0000EB82000182601CC4B2042CE7DB33
:103DB00000BF5FE70000000000B97047002100BFAE
:103DC0002DE001EB810300F10C0252F82320B2F93F
:103DD000022000EE102AB8EEC00ADFED360A20EE0F
:103DE000200A01EB810300F10C0202EB830282ED59
:103DF000020A01EBC10300F15C0202EBC30292ED87
:103E00000C0ADFED2D0A20EE200A01EB810300F100
:103E10000C0202EB830282ED010A4A1CD1B2042992
:103E2000CFDB90ED050AB1EE400AD0ED0A0A30EE84
:103E3000200AD0ED0F0A30EE200AD0ED140A30EE41
:103E4000600AF5EE000A20EE200A80ED790A90ED76
:103E5000050AB1EE400AD0ED0A0A30EE600AD0ED54
:103E60000F0A30EE200AD0ED140A30EE200AF5EEEB
:103E7000000A20EE200A80ED7A0A90ED050AB1EEE4
:103E8000400AD0ED0A0A30EE600AD0ED0F0A30EE9B
:103E9000600AD0ED140A30EE600AF5EE000A20EE5A
:103EA000200ADFED060A80EE201A80ED7B1A00BFA3
:103EB00083E700000A01DA390000FA43CDCC4C3E1A
:103EC00070B5044604B970BD0320207200F0EAFB0F
:103ED0002060002517E0284600F0C4FB05EB8502B2
:103EE00004F10C0141F8220005EBC502503101EB51
:103EF000C200DFED1C0A9FED1C0A1C4A0021FEF7E0
:103F00008BFA681CC5B2042DE5DBDFED190AB1EEB2
:103F1000080A184A002104F5BE70FEF77DFA16491A
:103F20009FED160A04F5E27000F00EFB14499FEDB8
:103F3000130A04F5EA7000F007FBB0EE080A84EDFE
:103F4000820AB8EE080A84ED830A9FED0E0A84ED1A
:103F5000840A9FED0D0A84ED850A2046FFF72CFFA9
:103F600000BFB0E70000FA4400007A46944E000813
:103F7000CDCC4C3EA04E0008AC4E00086F12033B67
:103F8000B04E00089A9939409A9939C000B97047E3
:103F9000417A027A914200D1F9E7417A31B1017A4E
:103FA00021B99FED0F0A80ED800A14E0417A0129C2
:103FB00007D0017A012904D190ED860A80ED810AAB
:103FC00009E0417A022906D0017A022903D190ED55
:103FD000860A80ED810A017A417200BFD7E70000AE
:103FE000000000002DE9F04106460F4615461C462C
:103FF00016B10FB105B10CB9BDE8F08122463946C2
:10400000304600F027F82068B0F9040000EE100AEE
:10401000B8EEC00ADFED030A20EE200A85ED000AA3
:1040200000BFE9E70AD723BC10B109B102B103B957
:1040300070479FED070A80ED000A9FED050A81EDAC
:10404000000A9FED030A82ED000A00BFF0E70000BE
:10405000000000002DE9F0412DED028B0746884657
:1040600014461CB117B1B8F1000F03D1BDEC028B9F
:10407000BDE8F0812068B0F902000A2805DC20685C
:10408000B0F9020010F10A0F03DA2068B0F902500B
:1040900000E000252068B0F900000A2805DC20684F
:1040A000B0F9000010F10A0F03DA2068B0F90060DF
:1040B00000E0002600EE105AB8EEC00ADFED350A27
:1040C00020EE208A00EE106AB8EEC00ADFED320A58
:1040D00060EE208A2068007D00F0010020B19FED95
:1040E0002F0AB0EE408A08E02068007D00F0020050
:1040F00018B19FED2B0AB0EE408A2068007D00F0D9
:10410000040020B19FED270AF0EE408A08E0206805
:10411000007D00F0080018B19FED230AF0EE408A00
:10412000B0EE480A04F5E27000F0E3F9B0EE680A78
:1041300004F5EA7000F0DDF99FED1C0AB4EEC08AC8
:10414000F1EE10FA0AD29FED1A0AB4EEC08AF1EE2F
:1041500010FA03DD9FED170A84ED720A9FED160A2F
:10416000F4EEC08AF1EE10FA0AD29FED140AF4EED2
:10417000C08AF1EE10FA03DD9FED0E0A84ED760A97
:1041800094ED720A87ED000A94ED760A88ED000A34
:1041900000BF6BE7A69BC43B0AD7A3BB6666A63FDE
:1041A0006666A6BF9A99993F9A9999BF90C2753D44
:1041B00090C275BD00000000CCCC4C3DCCCC4CBDB9
:1041C00010B52DED028B84B004461CB904B0BDECD3
:1041D000028B10BD9FED1C0A8DED030A9FED1A0A9C
:1041E0008DED020A9FED180A8DED010A234601AA02
:1041F00002A903A8FFF7AEFC207A022822D19DED88
:10420000010AB0EE408A84ED7E8A94ED820AB0EE17
:10421000401A94ED830AF0EE400A9DED030A00F087
:10422000DFF984ED7C0A94ED840AB0EE401A94ED37
:10423000850AF0EE400A9DED020A00F0D1F984ED06
:104240007D0A00BF00BFC1E70000000010B50446B2
:1042500004B910BD2046FFF7A3FC00BFF9E700003A
:1042600010B50D48FFF7F2FF0B48FFF78FFE0A4825
:10427000FFF7A2FD0848FFF7A3FF0748FFF7BAFCC6
:10428000054CB4F95830B4F94420B4F93010B4F9FD
:104290001C00FCF7EFF910BDD0010020F1EE401A30
:1042A00071EEE01A9FED102A42EE011AC0ED001ADD
:1042B00070EE601A9FED0C2A42EE011AC0ED011A51
:1042C00070EE201A9FED092A42EE011AC0ED021A83
:1042D000F1EE401A71EEA01A9FED042A42EE011A87
:1042E000C0ED031A70470000EB5138BEAF4761BE06
:1042F00070B504460025681FFEF7BCFB1348006834
:104300001349B0FBF1F013490870104800684FF4EE
:10431000FA51B0FBF1F0104908600CB94FF47A740F
:104320000A480068B0FBF4F0C5086D1E4FF0E020AD
:10433000006940F002004FF0E02108610846456145
:10434000006940F00100086170BD0000000000201D
:1043500000127A00240000202800002070B50346D7
:10436000002400210020002200254FF0E02675697E
:104370000D4E366803FB06F44FF0E026B16910E0FD
:104380004FF0E026B06988420BD0884202D20E1A64
:10439000324402E02E1A0E4432440146A24200D3B7
:1043A00000E0EDE700BF70BD2800002070B50346B7
:1043B000002400210020002200254FF0E02675692E
:1043C0000D4E367803FB06F44FF0E026B16910E09D
:1043D0004FF0E026B06988420BD0884202D20E1A14
:1043E000324402E02E1A0E4432440146A24200D367
:1043F00000E0EDE700BF70BD2400002070B504466A
:104400000026FFF71DFB054672B6616820698842E9
:1044100001D920682061206906782069401C20614C
:10442000A068401CA060E068401EE0602846FFF7DE
:1044300014FB304670BD034619608818401E586052
:104440009A600020D8601961596170472DE9F047E2
:10445000044688461546FFF7F3FA824672B6B8F16D
:10446000000F00D13CE0A06800B939E061686069E4
:10447000884201D920686061A068A84201DD284611
:1044800000E0A068054661696068401A461CAE42BB
:1044900009DB2E46324641466069FBF7FDFE606946
:1044A000304460610FE0A5EB060932464146606981
:1044B000FBF7F2FE08EB06014A462068FBF7ECFE2C
:1044C000206848446061A068401BA060E068284400
:1044D000E0602F465046FFF7C0FA3846BDE8F08747
:1044E0005046FFF7BAFA4FF0FF30F7E70146C868C9
:1044F000704710EE101A0160816800EE901AC168D2
:1045000001EE101A70EE811A816800EE901A80EEAA
:10451000A11A416800EE901A61EE200A816801EE4E
:10452000101AC16801EE901A31EE212A01EE101A1C
:10453000C1EE021A016801EE101A41EE810A10EE76
:10454000901A41607047000010EE102AC2600A689D
:104550008260DFED050A10EE902A0260DFED020AAC
:1045600010EE902A426070470000000010B50E481F
:104570000078401C0C49087008460078322811D198
:104580000A48007800F020F808480078401C0749E5
:10459000087008460078082801D100200870002023
:1045A0000149087010BD00003400002035000020D3
:1045B00010B504464FF4807040FA04F10148FDF74D
:1045C0006BF910BD0018024010B504464FF480701E
:1045D00040FA04F10148FDF761F910BD00180240EE
:1045E000F0EE401AF4EEE01AF1EE10FA02D2B0EE5C
:1045F000600A7047F4EEC11AF1EE10FA02DDB0EE77
:10460000410AF6E7B0EE610AF3E7000030B5034671
:1046100013B94FF6FF7030BD09E013F8014B82EA81
:104620000400C0B2054D35F8100080EA2222081EB1
:10463000A1F10101F1D11046EDE70000F24F0008B1
:1046400030B5034605E013F8010B80EA0204044884
:10465000025D081EA1F10101F5D1104630BD000038
:10466000F14E0008014601F0030000EB8000024A11
:1046700002EB4000704700005601002000487047E0
:104680002E01002000487047380100200048704784
:1046900010010020004870471A01002000487047B0
:1046A00024010020004870473805002010B51D483F
:1046B0000021016001711C48016001711B480180EB
:1046C00081701B4801701C211A48FBF77EFE1A48B6
:1046D0000021016019480160194801808170194862
:1046E00001800F211848FBF770FE0E211748FBF7D9
:1046F0004AFE10211648FBF746FE164800210170BD
:1047000015480180154801701548016081801548E1
:10471000017015480160416081601E211348FBF75C
:1047200032FE10BDD8000020DD000020B4000020C3
:10473000B7000020BC0F0020B8000020BC00002003
:10474000C0000020C3000020D80F0020E70F002089
:10475000F50F0020C5000020C6000020C800002082
:10476000C9000020CF00002005100020911000207B
:104770001CB501214020FDF77FFE4FF40050009052
:1047800001208DF8040000208DF8060003208DF82C
:10479000050001208DF8070069460348FDF706F87B
:1047A00000F004F81CBD00000018024010B54FF4E2
:1047B00000510248FDF770F810BD000000180240DB
:1047C0001CB501217020FDF757FE4FF4804000908A
:1047D00001208DF8040000208DF8060003208DF8DC
:1047E000050001208DF8070069460F48FCF7DEFF41
:1047F0004FF40060009069460C48FCF7D7FF00F0CA
:1048000019F800F021F84FF4FF700090694608484D
:10481000FCF7CCFF002404E02046FFF7C9FE601C33
:10482000C4B2082CF8DD1CBD001402400010024088
:104830000018024010B54FF480410248FDF72AF8F5
:1048400010BD00000014024010B54FF40061024892
:10485000FDF720F810BD000000100240FBF7BDFE80
:104860006420FFF77BFDFEF74DF801E0FEF722F82C
:10487000FCE700001CB501218020FDF7FDFD3C2078
:10488000009001208DF8040000208DF80600032020
:104890008DF8050001208DF8070069460648FCF7F1
:1048A00085FF002404E0204600F008F8601CC4B234
:1048B000042CF8DB1CBD0000001C024010B50446AF
:1048C000032C00DD10BD0420A04081B20248FCF79B
:1048D000E1FF00BFF6E70000001C024010B50446EF
:1048E000032C00DD10BD0420A04081B20248FCF77B
:1048F000D3FF00BFF6E70000001C024038B50446B5
:104900000025002000904C48216801602179017148
:104910006D1D601900880090AD1CBDF8000040F2CC
:104920000222811A904256D016DCB0F5817F3AD02F
:104930000ADC012821D0022826D0032828D0A0F2A2
:104940000110002875D129E0A0F2031080B30128DE
:1049500036D0FE286DD138E0042951D006DC01297B
:104960003FD0022943D0032963D144E005294BD02D
:10497000062950D0FF295CD151E060192F490288E7
:104980000A808078887055E02D48615D017051E0A3
:1049900061191C222B48FBF77FFC4BE061192A4868
:1049A0000968016046E0611928480968016041E032
:1049B000FFE76019264902880A808078887039E00C
:1049C000611924480988018034E061190F222248C6
:1049D000FBF762FC2EE061190E222048FBF75CFC1D
:1049E00028E0611910221E48FBF756FC22E01D4802
:1049F000615D01701EE061191B480988018019E0A2
:104A00001A48615D017015E06019194902680A6071
:104A1000808888800EE01748615D01700AE06019A7
:104A2000154902680A6042684A608068886001E04F
:104A3000FFE700BF00BF38BDD8000020B400002051
:104A4000B7000020BC0F0020B8000020BC000020F0
:104A5000C0000020C3000020D80F0020E70F002076
:104A6000F50F0020C5000020C6000020C80000206F
:104A7000C9000020CF0000200510002010B5FDF770
:104A800007FA10BD10B524220249A1F12400FDF758
:104A9000B7FD10BD7205002010EE101A016081698B
:104AA000416141698161816900EE901A816801EE7E
:104AB000101A60EE810A416901EE101AC16801EE18
:104AC000901A41EE210A016801EE101A016901EE07
:104AD000901A41EE210A10EE901AC161C16941603D
:104AE000704700009FED0F0A10EE102A42619FED03
:104AF0000D0A10EE102A82619FED0A0A10EE102AAC
:104B0000C2610A6882604A68C2608A6802619FED79
:104B1000050A10EE102A02609FED020A10EE102A1C
:104B2000426070470000000002480068401C0149D4
:104B3000086070472C00002070B505460C46002622
:104B40000DB1022C01D8002070BDA11E09480288B9
:104B50002846FFF75BFD0646F1B2A01E285C8142A5
:104B600006D1601E285CB0EB162F01D10120EBE7C7
:104B70000020E9E7E600002070B505460C46002657
:104B80000DB1022C01D8002070BD611EFF22284605
:104B9000FFF756FD0646601E285CB04201D1012099
:104BA000F2E70020F0E7000021F00042A2F160529D
:104BB000B2F5801F01F0004328BFD2F17F6C0BD902
:104BC0005FEA001C43EAC20242EB507018BF704714
:104BD00028BF20F001007047B2F5801FBCBF184607
:104BE00070474FEA410C1CF5001F02D2084600F046
:104BF00007B970B500F009F800000089FFF7F6BFAB
:104C00004FF00040A0F5800070470EF1020E2EF02C
:104C1000030E5EF8046B364205D4012A43EB03050C
:104C200015F5001F12D8012841EB010C1CF5001FDF
:104C30000CD80ED14FEAD17C15F5001F0CEB4C0CB3
:104C40000CF1020C08BF4CEBD37C04E04FF0080CD5
:104C500001E04FEAD37C0CEB4C0526FA05F606F092
:104C60000706B6F1040C06D20EEB860CBDE87040C8
:104C70004CF0010C6047DFE80CF0090B02024FF02A
:104C800000414FF00000A1F5002170BD194610460B
:104C9000012851EB010418BFD4F5001484BF002093
:104CA00001F0004170BD0808A0F500114FEA310184
:104CB0007047000043004FEAD30C4FEA3C0C4340DE
:104CC0001FBF40070CF1605113F0FE4F70471CF0FE
:104CD000006F03D100200CF0004170470CF000433E
:104CE00043EA507010B540EACC0000F03EF800BF37
:104CF000000000924FEA0001FFF7D5BF4FF00041DE
:104D00004FF00000A1F5002170474FF07E5209E0FE
:104D100011F0004204D54042C1F1000138BF491EE4
:104D200042F07E520B0002F1706212BF20235FEA54
:104D300000017047B1FA81FCA3EB0C0301FA0CF1FE
:104D400020FA03FC02EBC352C3F1200341EA0C0139
:104D500010FA03FC5CEA416C42EB112018BF5FF0D3
:104D6000806C28BF20F0010070470EF1020E2EF07B
:104D7000030E5EF8044B244204D44FEA4102B2F120
:104D80007F4F11D84FEA4003B3F17F4F0CD80ED1BB
:104D90004FEAD07CB2F17F4F0CEB4C0C0CF1020CC3
:104DA00008BF4CEBD17C04E04FF0080C01E04FEA67
:104DB000D17C0CEB4C0324FA03F404F00704B4F1A7
:104DC000040C06D20EEB840CBDE810404CF0010C34
:104DD0006047DFE80CF0070802024FF00040A0F542
:104DE000800010BD0846420018BFD2F1807288BF13
:104DF00000F0004010BD4FF04070E1EE100A704727
:104E0000FF2141EAD050C00570470000C2154FEAAB
:104E1000002318BF43F0004300F11080D2F1BE021E
:104E200040F2288023FA02F1B2F1200C2EBF23FABF
:104E30000CF0C2F1200C03FA0CF07047B0F15F4F98
:104E400000F2188012F0FF0208BF23F00043C2F105
:104E5000BE0223FA02F1B2F1200C2EBF23FA0CF0AD
:104E6000C2F1200C03FA0CF04042C1F1000138BF3E
:104E7000491E704710B5FFF778FF00BF92244980A4
:104E800000204FF0000170476FEAE07080F00041B1
:104E90007047000000606A460000204100000000EA
:104EA00000002041000000000000003FABAA2A3EA5
:104EB000ABAAAA3E000070410000803F0000004005
:104EC000000070410000803F0000004000002041D1
:104ED000000000000000003F000020410000000032
:104EE0000000003F10E4DC3FCB8541BF7FB5F73CBD
:104EF000FF005EBCE2613FDD83C29C7E20A3FD1FFC
:104F0000419DC3217FFCA2401E5F01E3BD3E608244
:104F1000DC237D9FC1421CFEA0E1BF5D0380DE3C1F
:104F200062BEE0025CDF81633D7C22C09E1D43A126
:104F3000FF4618FAA427799BC584DA3866E5BB5981
:104F400007DB856739BAE406581947A5FB7826C4FC
:104F50009A653BD987045AB8E6A7F91B45C6987AE3
:104F600024F8A6441A99C7257B3A6486D85B05E7DE
:104F7000B98CD2306EEDB3510F4E10F2AC2F71934D
:104F8000CD114FADF3702ECC92D38D6F31B2EC0EAC
:104F900050AFF1134DCE90722C6D33D18F0C52B0B7
:104FA000EE326C8ED0530DEFB1F0AE4C1291CF2D8E
:104FB00073CA947628ABF517490856B4EA6937D511
:104FC0008B5709EBB536688AD495CB2977F4AA4874
:104FD00016E9B7550B88D6346A2B7597C94A14F66B
:104FE000A8742AC896154BA9F7B6E80A54D7896B56
:104FF00035000000891112239B322446AD573665D7
:10500000BF74488CC19D5AAFD3BE6CCAE5DB7EE944
:10501000F7F88110080193331A22A5562C47B7756B
:105020003E64C99C408DDBBF52AEEDDA64CBFFF924
:1050300076E802218B30100299132667AF7634444C
:10504000BD554AADC3BC588ED19F6EEBE7FA7CC804
:10505000F5D983310A2091121803A7772E66B5542B
:105060003C45CBBD42ACD99E508FEFFB66EAFDD8E4
:1050700074C904428D5316619F702004A91532270C
:10508000BB364CCEC5DF5EEDD7FC6888E1997AABC4
:10509000F3BA85520C4397711E60A1142805B337EB
:1050A0003A26CDDE44CFDFFD56ECE9986089FBBBA4
:1050B00072AA06638F7214409D512225AB343006CC
:1050C000B9174EEFC7FE5CCCD5DD6AA9E3B8788A84
:1050D000F19B87730E6295501C41A3352A24B116AB
:1050E0003807CFFF46EEDDDC54CDEBB962A8F99A64
:1050F000708B088481951AA793B62CC2A5D33EE184
:10510000B7F04008C919522BDB3A644EED5F766D5B
:10511000FF7C899400859BB712A6ADD224C3BFF152
:1051200036E0C1184809D33B5A2AE55E6C4FF77D3B
:105130007E6C0AA583B4188691972EE3A7F23CC033
:10514000B5D14229CB38500AD91B666FEF7E744C1B
:10515000FD5D8BB502A499961087AFF326E2BDD012
:1051600034C1C3394A28D11A580BE77F6E6EF55CFB
:105170007C4D0CC685D71EE597F42880A1913AA3F3
:10518000B3B2444ACD5B5669DF78600CE91D722FDB
:10519000FB3E8DD604C79FF516E4A9902081BBB3D2
:1051A00032A2C55A4C4BD7795E68E11C680DF33FBB
:1051B0007A2E0EE787F61CC495D52AA1A3B03882B3
:1051C000B193466BCF7A5448DD59622DEB3C700E9B
:1051D000F91F8FF706E69DD414C5ABB122A0B99292
:1051E0003083C77B4E6AD5585C49E33D6A2CF11E7B
:1051F000780F00000000C84200000000000000001E
:105200000000C84200000000000000000000C8428A
:1052100000000000000000000000A04000000000AE
:10522000000000000000A04000000000000000009E
:105230000000A040000000000000000010E4DC3F7F
:10524000CB8541BF7FB5F73C6852000800000020C5
:1052500010010000E8010008785300081001002048
:1052600050170000040200080095BA0A0000000070
:105270000000000001020304060708090000000006
:1052800001020304010203040607080900000000EC
:10529000000000000000000000000000000000010D
:1052A00000000000BD200008E8030000000000002E
:1052B00037210008F401000000000000312100083F
:1052C000C8000000000000000D210008640000007C
:1052D0000000000043210008320000000000000030
:1052E00033210008140000000000000035210008F0
:1052F00002000000000000000000000000000000AC
:10530000000000000000000000000000000000009D
:10531000000000000000000000000000000000008D
:10532000000000000000000000000000000000007D
:10533000000000000000000000000000AF1000208E
:105340000000000000000000000000000000FFFF5F
:10535000000000000000000000000000000000004D
:10536000000000000000000000000000000000003D
:08537000000000000000000035
:04000005080001AD41
:00000001FF
