:020000040800F2
:10000000B81600204D020008831D00088D1A000854
:100010007F1D0008DB060008033000080000000018
:10002000000000000000000000000000690200085D
:10003000B5130008000000006D020008AD2600089E
:1000400071020008710200087102000871020008C4
:1000500071020008710200087102000871020008B4
:1000600071020008710200087102000871020008A4
:100070007102000871020008710200087102000894
:100080007102000871020008710200087102000884
:10009000E106000871020008710200087102000800
:1000A0007102000871020008710200087102000864
:1000B0007102000871020008710200087102000854
:1000C0007102000871020008710200087102000844
:1000D00071020008352A0008710200087102000848
:1000E0007102000871020008710200087102000824
:1000F0007102000871020008710200087102000814
:100100007102000871020008710200087102000803
:10011000710200087102000831270008710200080E
:1001200071020008710200087102000871020008E3
:1001300071020008710200087102000871020008D3
:1001400071020008710200087102000871020008C3
:10015000710200087102000871020008752C000885
:1001600071020008710200087102000871020008A3
:10017000710200087102000871020008000000000E
:100180007102000871020008710200087102000883
:100190007102000871020008710200087102000873
:1001A00000000000000000007102000800F002F8EA
:1001B00000F03CF80AA090E8000C82448344AAF1C5
:1001C0000107DA4501D100F031F8AFF2090EBAE8C3
:1001D0000F0013F0010F18BFFB1A43F0010318477B
:1001E000F848000018490000103A24BF78C878C1C8
:1001F000FAD8520724BF30C830C144BF04680C602D
:10020000704700000023002400250026103A28BF74
:1002100078C1FBD8520728BF30C148BF0B60704778
:100220001FB504F0A0FA1FBD10B510BD00F0FDF819
:100230001146FFF7F5FF03F07DFF00F01BF903B453
:10024000FFF7F2FF03BC00F01FF900000C48016843
:1002500041F4700101600B4880470B480047FEE7FE
:10026000FEE7FEE7FEE7FEE7FEE7FEE7FEE7FEE766
:10027000FEE7000005480649044A064B70470000A7
:1002800088ED00E0C9260008AD010008B812002082
:10029000B8160020B8120020032A40F2308010F077
:1002A000030C00F0158011F8013BBCF1020F624411
:1002B00098BF11F801CB00F8013B38BF11F8013BA2
:1002C000A2F1040298BF00F801CB38BF00F8013B4F
:1002D00011F0030300F02580083AC0F0088051F8BF
:1002E000043B083A51F804CBA0E80810F5E7121DCA
:1002F0005CBF51F8043B40F8043BAFF30080D207E9
:1003000024BF11F8013B11F801CB48BF11F8012BB4
:1003100024BF00F8013B00F801CB48BF00F8012BD7
:10032000704710B5203AC0F00B80B1E81850203A61
:10033000A0E81850B1E81850A0E81850BFF4F5AF85
:100340005FEA027C24BFB1E81850A0E8185044BF0F
:1003500018C918C0BDE810405FEA827C24BF51F87C
:10036000043B40F8043B08BF7047D20728BF31F870
:10037000023B48BF11F8012B28BF20F8023B48BFC1
:1003800000F8012B70474FF000020429C0F01280E2
:1003900010F0030C00F01B80CCF1040CBCF1020F38
:1003A00018BF00F8012BA8BF20F8022BA1EB0C010D
:1003B00000F00DB85FEAC17C24BF00F8012B00F803
:1003C000012B48BF00F8012B70474FF0000200B529
:1003D000134694469646203922BFA0E80C50A0E868
:1003E0000C50B1F12001BFF4F7AF090728BFA0E816
:1003F0000C5048BF0CC05DF804EB890028BF40F8E2
:10040000042B08BF704748BF20F8022B11F0804F23
:1004100018BF00F8012B7047704770477047000005
:10042000004870475412002070477546FFF7F8FFE8
:10043000AE4605006946534620F00700854618B0D1
:1004400020B5FFF717FFBDE820404FF000064FF042
:1004500000074FF000084FF0000B21F00701AC46F9
:10046000ACE8C009ACE8C009ACE8C009ACE8C00918
:100470008D46704710B50446AFF300802046BDE8B6
:100480001040FFF7DCBE000001491820ABBEFEE7BC
:100490002600020010B540F26C71024802F085FAA5
:1004A00010BD00000004014010B54FF496610248F1
:1004B00002F07BFA10BD00000004014010B54FF4BB
:1004C0002F61024802F06FFA10BD000000040140E5
:1004D00010B54FF4E161024802F065FA10BD00006A
:1004E0000004014010B50948C07A012801D1FFF786
:1004F000DBFF0648C07A032801D1FFF7CBFF034892
:10050000C07A022801D1FFF7C5FF10BDB00400205A
:1005100010B50948C07A012801D1FFF7D9FF064874
:10052000C07A032801D1FFF7C9FF0348C07A022827
:1005300001D1FFF7C3FF10BDB004002000B58BB0A0
:100540000121022001F0BCFD0121080201F088FD1B
:1005500003220721394801F00BF88020099002207E
:100560008DF8280003208DF8290000208DF82A003E
:1005700001208DF82B0009A9304800F0B1FF0322BB
:1005800002212E4800F0F4FF0420099002208DF88B
:10059000280003208DF8290000208DF82A00012072
:1005A0008DF82B0009A9254800F09AFF40F6B730D6
:1005B0000790B320ADF818000020ADF81A00ADF890
:1005C000200006A91E4802F0F3F96020ADF80400EF
:1005D0000120ADF806000020ADF81000ADF80800CD
:1005E0000820ADF812004001ADF814000020ADF86D
:1005F000160040F28A70039001A9114802F02EF90A
:1006000008210F4802F07AF901A90D4802F080F99B
:1006100008210B4802F0B8F90121094802F09AF8C4
:100620000121074802F0B1F80121054802F0A1F8C4
:10063000FFF730FFFFF742FF0BB000BD0020024084
:100640000004014010B596215A2002F0DDFEFA2088
:1006500003F0F4FA02F0D0FE10BD38B54FF440704C
:1006600001F0CCFB4FF47A7003F0B2FA03F014FD02
:1006700003F086FD002408E0204603F0B5FD40F2BB
:10068000C52003F003FB601CC4B2042CF4DBFFF7AD
:1006900055FF01F06BF903F0D7FC5A214FF4AF700E
:1006A00002F04EFE002005231A460121009000F0C2
:1006B0002FF802F0B7FE00F0FFFC00F087FF02F019
:1006C000A3FC03F065FE01F035FEFFF7BBFF5A21E6
:1006D00047F2305002F034FE38BD00BFFEE70000A4
:1006E00010B50221084800F0CBF958B102210648A4
:1006F00000F0EEF8054A0021034800F0E4FA034850
:1007000000F0ECFB10BD000000640040340100204C
:100710002DE9F0418AB004460D4616461F46DDF825
:1007200040800121082001F09BFC0121480601F0D6
:10073000A7FC0121480601F0B3FC00214FF0007036
:1007400001F0AEFC0320089002208DF82400002068
:100750008DF8260003208DF8250001208DF8270054
:1007600008A92D4800F0BCFE092200212A4800F00B
:10077000FFFE09220121284800F0FAFE00208DF832
:100780001A0001208DF81B0000208DF81C008DF848
:100790001D008DF81E008DF81F008DF816808DF855
:1007A00017408DF818608DF81950ADF8147005A930
:1007B0001A4800F0FEF900208DF80E008DF80F00A9
:1007C00001208DF810000020ADF80400ADF80600FF
:1007D000ADF80800ADF80A00ADF80C0001208DF866
:1007E000110001A800F0C8F8012202210B4800F016
:1007F000D7F914208DF8000004208DF801000020A6
:100800008DF8020001208DF80300684601F0BAFA65
:1008100000200AB0BDE8F081000C024000640040F6
:10082000F0B585B004460D4616461F464FF40070DD
:10083000009000208DF808008DF8090008208DF840
:100840000A00200A8DF80B00E1B28DF80C10290A7D
:100850008DF80D10E9B28DF80E10310A8DF80F10D9
:10086000F1B28DF81010390A8DF81110F9B28DF827
:1008700012106946024800F09EFA05B0F0BD000073
:10088000006400402DE9F04104460D4616461F461F
:1008900040F2FF100C4908600020087248720820DE
:1008A0008872200AC87208460473290A4173857346
:1008B000310AC1730674390A4174877401460348CA
:1008C00000F079FABDE8F0812001002000640040CA
:1008D000B1F5007F3AD00FDC202928D006DC0129B1
:1008E0001CD004291DD0082940D11DE0402921D069
:1008F000B1F5807F3AD126E0B1F5004F31D006DC6A
:10090000B1F5806F25D0B1F5006F2FD124E0B1F59E
:10091000803F12D0B1F5003F28D111E0154A826026
:1009200025E00822C26022E01022C2601FE00822F7
:1009300002611CE01022026119E00822426016E008
:100940001022426013E00422426010E00422426060
:100950000DE0042242600AE000228261042242602B
:1009600005E0002282610422426000E000BF00BF77
:10097000704700000101010010B50021837A0122B7
:1009800002FA03F13D4A126842F001023B4B1A6041
:100990003A4A1C3212688A43384B1C331A60027B75
:1009A000CAB9364A0C3212688A43344B0C331A6087
:1009B0004288C38842EA0343304A4032847A42F88C
:1009C00034300288838842EA03432C4A4032847AD6
:1009D00002EBC4025360027B012A19D1274A0C3270
:1009E00012680A43254B0C331A604288038842EA96
:1009F0000343224A4032847A42F83430C2888388E2
:100A000042EA03431D4A4032847A02EBC402536037
:100A1000C27A3AB9194A121D12688A43174B1B1D34
:100A20001A6006E0154A121D12680A43134B1B1D7B
:100A30001A60028932B9114A143212688A430F4B84
:100A400014331A600289012A06D10C4A1432126842
:100A50000A430A4B14331A60427B012A06D1074A23
:100A60001C3212680A43054B1C331A60034A126891
:100A700022F00102014B1A6010BD00000066004028
:100A800070B504460D46002660692840002871D0E4
:100A9000B5F5807F5CD010DC082D35D006DC012D4B
:100AA00020D0022D24D0042D72D127E0102D31D07A
:100AB000202D35D0402D6BD138E0B5F5004F60D0FA
:100AC00009DCB5F5007F49D0B5F5806F4CD0B5F5A0
:100AD000006F5DD14FE0B5F5803F2DD0B5F5003FFB
:100AE00056D12FE0A0682D4900F034FB064651E0B6
:100AF000E068032100F02EFB06464BE0E068082189
:100B000000F028FB064645E0E068102100F022FBDB
:100B100006463FE02069032100F01CFB064639E051
:100B20002069082100F016FB064633E020691021F9
:100B300000F010FB06462DE06068082100F00AFB7B
:100B4000064627E06068102100F004FB064621E01D
:100B5000A069012100F0FEFA06461BE0A06902210F
:100B600000F0F8FA064615E0A069042100F0F2FA58
:100B700006460FE00FE0A069702100F0EBFA064690
:100B800008E06068042100F0E5FA064602E0FFE7AD
:100B9000002600BF00E00026304670BD01010100C4
:100BA0001AB143690B43436102E043698B434361DC
:100BB000704730B5024600200023146824F0020478
:100BC0001460146844F00104146000E05B1C546875
:100BD00004F001041CB94FF6FF74A342F6D1546827
:100BE00004F001040CB900206CE08C79012C04D1D4
:100BF000146844F08004146003E0146824F0800456
:100C00001460CC79012C04D1146844F040041460C1
:100C100003E0146824F0400414600C7A012C04D121
:100C2000146844F02004146003E0146824F02004E5
:100C300014604C7A012C04D1146844F01004146040
:100C400003E0146824F0100414608C7A012C04D1A1
:100C5000146844F00804146003E0146824F00804E5
:100C60001460CC7A012C04D1146844F0040414609C
:100C700003E0146824F0040414608C78A407CD7891
:100C800044EA05640D7944EA05444D7944EA055483
:100C90000D886D1E2C43D461146824F00104146087
:100CA000002300E05B1C546804F001041CB14FF603
:100CB000FF74A342F6D1546804F001040CB1002083
:100CC00000E0012030BD10B500F5D87303EB01132F
:100CD0001B6803F004031372137A53B900F5D87339
:100CE00003EB01131B6840F2FF7404EA53531360D3
:100CF00009E000F5D87303EB01131B686FF0604443
:100D000004EAD303536000F5D87303EB01131B68A7
:100D100003F00203537200F5D87303EB01135B6811
:100D200003F00F03937200F5D87303EB01135B68B4
:100D30001B0AD37400F5D87303EB01139B68D372BD
:100D400000F5D87303EB01139B681C0A147300F5BC
:100D5000D87303EB01139B681C0C547300F5D87314
:100D600003EB01139B681B0E937300F5D87303EB21
:100D70000113DB68D37300F5D87303EB0113DB6851
:100D80001C0A147400F5D87303EB0113DB681C0C08
:100D9000547400F5D87303EB0113DB681B0E9374D6
:100DA00021B9C36843F02003C36003E0036943F043
:100DB0002003036110BD10B502460020936803F0C4
:100DC0008063B3F1806F00D110E0936803F000639B
:100DD000B3F1006F01D1012008E0936803F0805364
:100DE000B3F1805F01D1022000E00420042874D018
:100DF00002F5C07303EB00131B6803F0010402F556
:100E0000C07303EB00131C600B7A7BB94B7A0C8820
:100E100043EA445302F5C07404EB001424682343EE
:100E200002F5C07404EB0014236010E00B7A4C68E8
:100E300043EAC4034C7A234302F5C07404EB001464
:100E40002468234302F5C07404EB001423608B7AFA
:100E500003F00F038B7202F5C07303EB00135B68A2
:100E600023F00F0402F5C07303EB00135C6002F57E
:100E7000C07303EB00135B688C7A234302F5C074E4
:100E800004EB001463608B7B1C064B7B44EA034439
:100E90000B7B44EA0323CC7A234302F5C07404EBB2
:100EA0000014A3608B7C1C064B7C44EA03440B7C3F
:100EB00044EA0323CC7B234302F5C07404EB001403
:100EC000E36002F5C07303EB00131B6843F00104F9
:100ED00002F5C07303EB00131C6010BD0168A1F2A2
:100EE0000121082975D2DFE801F0757677780420B2
:100EF0003C585B49098809B2594A1181017BC27A81
:100F000041EA0221564A1180827B417B42EA01215B
:100F100009B2534A5180027CC17B42EA012109B2E5
:100F20004F4A9180417C917197E04E49098809B2FE
:100F30004C4A1181017BC27A41EA0221494A11805F
:100F4000827B417B42EA012109B2464A5180027C00
:100F5000C17B42EA012109B2424A9180417C9171F0
:100F60007BE04149098809B23F4A1181017BC27A7D
:100F700041EA02213C4A1180827B417B42EA012105
:100F800009B2394A5180027CC17B42EA012109B28F
:100F9000354A9180417C91715FE03449098809B2FA
:100FA000324A1181017BC27A41EA02212F4A118023
:100FB000827B417B42EA012109B22C4A5180027CAA
:100FC000C17B42EA012109B2284A9180417C91719A
:100FD00043E041E000BF00BF00BF0178491E244A42
:100FE00011701146097801EB8101224A32F8111083
:100FF00009B21F4A127802EB82021E4B03EB420237
:101000001181017BC27A41EA0221194A127802EB6E
:10101000820223F81210827B417B42EA012109B24D
:10102000134A127802EB820203EB42025180027CE7
:10103000C17B42EA012109B20D4A127802EB820219
:1010400003EB42029180417C094A127802EB820252
:1010500003EB4202917100E000BF00BF7047000047
:10106000D0000020DA000020E4000020EE00002084
:1010700036000020F80000201CB50121202000F0DF
:10108000EFFF4FF48060009001208DF804000020F5
:101090008DF8060003208DF8050001208DF807006B
:1010A0006946044800F01CFA4FF48061014800F0E2
:1010B00082FA1CBD0014024010B5024800F004F88A
:1010C00010BD00009000002010B5044604B910BD0A
:1010D000FFF7D2FF0120207102F050FF206000BF17
:1010E000F5E7000010B5044604B910BD20790128C9
:1010F00003D18102054800F05EFA207920B94FF44F
:101100008061024800F059FA00BFEEE70014024087
:1011100000B970470949C97A012900D1017107490D
:10112000C97A032901D1002101710449C97A022930
:1011300001D10121017100BFEBE70000B0040020E4
:1011400010B50348FFF7E4FF0148FFF7CBFF10BDE0
:10115000900000200246002002EA01030BB10120AA
:1011600000E00020704700000246094B9A4201D27D
:10117000084801E00648103801F000531BB1064B47
:101180000B40C36002E0044B0B40836070470000DB
:1011900010640240006002407D0F7D0F21B10268A3
:1011A00042F00102026003E0026822F001020260E4
:1011B00070470000016821F0010101600021016019
:1011C00041608160C1600161212141614A498842D9
:1011D00004D13D21484A103A91608CE046491831CB
:1011E000884205D14FF47461434A103A916082E01D
:1011F00041493031884205D14FF474113E4A103ACA
:10120000916078E03C494831884205D14FF07461E3
:10121000394A103A91606EE037496031884204D112
:101220003649354A103AD16065E033497831884211
:1012300004D13349304A103AD1605CE02E499031F4
:10124000884204D12F492C4A103AD16053E02A49F0
:10125000A831884205D14FF03D51274A103AD1605C
:1012600049E02949884204D13D21274A083A1160C2
:1012700041E025491831884205D14FF47461224A72
:10128000083A116037E020493031884205D14FF4E7
:1012900074111D4A083A11602DE01B4948318842FB
:1012A00005D14FF07461184A083A116023E01649DD
:1012B0006031884204D11149134A121F11601AE0AB
:1012C00011497831884204D10D490F4A121F11602B
:1012D00011E00D499031884204D10A490A4A121F8F
:1012E000116008E00849A831884204D14FF03D510F
:1012F000054A121F11607047106002403D00002037
:10130000400F002000003D201064024021B102681F
:1013100042F48022026003E0026822F4802202602C
:10132000704722B1036843F40023036003E00368BD
:1013300023F400230360016170470146486880B2CE
:101340007047014600200A6802F400220AB1012019
:1013500000E000207047000010B500220268134B27
:101360001A40CC680B6823434C6923438C692343A0
:10137000CC6923430C6A23434C6A23438C6A23437E
:101380004C6B23438C6B23431A430260426922F067
:101390000702D1E90B3423431A4342610B694360CE
:1013A0004B6883608B68C36010BD00003F801CF0F9
:1013B000416070477047000010B5044604EBC4005C
:1013C000454901EB8000006804EBC401424A02EB8E
:1013D000810148604148006804EBC40102EB8101CF
:1013E000086004EBC400114601EB8000C07CC0F330
:1013F0008010B0B104EBC40001EB8000C07C20F091
:10140000400004EBC40102EB8101C87404EBC4008A
:10141000114601EB8000006804EBC40102EB81017E
:10142000C86004EBC4002C4901EB8000806990B3D4
:1014300004EBC401284A02EB81018869804758B354
:1014400004EBC400244901EB8000C07C20F02000A4
:10145000203004EBC401204A02EB8101C87404EB84
:10146000C400114601EB8000C07C20F08000803079
:1014700004EBC40102EB8101C87404EBC400114603
:1014800001EB8000006A28B304EBC40102EB810188
:10149000086A80471EE00FE0FFE704EBC4000E4936
:1014A00001EB8000C07C20F0800004EBC4010A4AFC
:1014B00002EB8101C8740DE004EBC400064901EBA6
:1014C0008000C07C20F0800004EBC401024A02EBE3
:1014D0008101C87410BD00006C03002030000020A2
:1014E000F0B50A4600210023002400BF3DE001259D
:1014F00005FA01F3156805EA03049C4234D1056836
:101500004F000326BE40B543056015794E00B54037
:101510000668354305601579012D02D01579022D35
:1015200016D185684F000326BE40B54385605579C6
:101530004E00B540866835438560456801268E407B
:10154000B5434560456896798E40B6B235434560EF
:10155000C5684F000326BE40B543C560D5794E002F
:10156000B540C6683543C560491C1029BFD3F0BDDE
:10157000F0B5002300244D07ED0E02FA05F3CE105E
:1015800000F1200555F826504E07F70E0F26BE40F5
:10159000B543CF1000F1200646F82750CE1000F1D9
:1015A000200555F8265045EA0304CE1000F1200529
:1015B00045F82640F0BD418370470183704742697A
:1015C0004A404261704780ED000A704710B50248FA
:1015D00000F0A2F810BD00003405002038B5044624
:1015E0009FED230A8DED000AD4ED5F0AB0EE600A8C
:1015F0006846FFF7E8FF2079012804D10021A18483
:101600004420015338BD9DED000AB1EE400A84ED3F
:10161000080A9DED000A84ED100A94ED081AF0EE18
:10162000410A94ED071AB0EE410A04F1480000F0B7
:10163000EFFB94ED101AF0EE410A94ED0F1AB0EEA4
:10164000410A04F1D80000F0E3FB94ED1A0ABDEE64
:10165000C00A10EE100A01B2A18494ED3E0ABDEE5C
:10166000C00A10EE100A01B24420015300BFC9E7BE
:101670000000000010B5044604B910BDA068B0F920
:10168000020000EE100AB8EEC00A84ED070AA06A54
:10169000B0F9020000EE100AB8EEC00A84ED0F0A9D
:1016A00094ED1E0ADFED1B0A20EE200A84ED060AE7
:1016B00094ED420ADFED170A20EE200A84ED0E0AAF
:1016C000A189A268108802F041FD84ED040AA18D71
:1016D000A26A108802F03AFD84ED0C0AA189A26882
:1016E000108802F033FDBCEEC00A10EE100AA4F818
:1016F000800194ED070A84ED5E0AA189A268108832
:1017000002F024FDBCEEC00A10EE100AA4F880011D
:1017100000BFB2E700007A4410B5044604B910BD1A
:101720000120207102F02AFC206002F017FCA0606A
:1017300002F018FCA06241F27071A181A185DFED79
:10174000220A9FED220A224A002104F1480000F0FB
:1017500057FCDFED200AB1EE080A1F4A002104F110
:10176000900000F04DFCDFED180A9FED180A184AB2
:10177000002104F1D80000F043FCDFED160AB1EEC1
:10178000080A154A002104F1900000F039FC1349C1
:101790009FED130A04F5B47002F046FB9FED110AA9
:1017A00084ED610A9FED100A84ED620A9FED0F0A35
:1017B00084ED630AB1EE040A84ED640A2046FFF763
:1017C00059FF00BFABE700000000FA4400007A4672
:1017D0009C470008CDCC4C3EA8470008B447000801
:1017E0006F12833A00007A4400007AC40000C842B5
:1017F00070B52DED028B06460C4604B116B9BDEC52
:10180000028B70BD2068B0F902000A2805DC206850
:10181000B0F9020010F10A0F03DA2068B0F90250A3
:1018200000E0002500EE105AB8EEC00AF0EE0C0AF7
:1018300020EE208AB0EE480A04F5B47002F0C9FA2E
:101840009FED0B0AB4EEC08AF1EE10FA0AD29FEDBA
:10185000090AB4EEC08AF1EE10FA03DD9FED060A24
:1018600084ED5B0A94ED5B0A86ED000A00BFC6E7D3
:1018700000000CC200000C420000000010B52DED6D
:10188000028B82B004461CB902B0BDEC028B10BDC5
:101890009FED110A8DED010A9FED0F8A214601A8E7
:1018A000FFF7A6FF2079012803D19FED0B0A84EDF5
:1018B0005F0A207968B994ED610AB0EE401A94EDA0
:1018C000620AF0EE400A9DED010A02F0F9FA84ED99
:1018D0005F0A00BFD8E700000000000000B97047B1
:1018E0000949897A012900D101710749897A0329B7
:1018F00001D1002101710449897A022901D1012114
:10190000017100BFEBE70000B004002010B50648ED
:10191000FFF7E4FF0448FFF7ADFE0348FFF7AEFF13
:101920000148FFF75BFE10BD3405002000BF0E4AE2
:1019300011684FF0E02252694FF0E0239B69D21A00
:101940004FF47A735A434FF0E0235B69B2FBF3F232
:1019500001EB4103C3EBC11302EBC300024A12685F
:101960009142E4D1704700003000002000B58BB0F8
:101970000121082000F084FB0121080200F070FB27
:101980000121802000F06CFB02220C213C48FFF773
:10199000EFFD4FF48050099002208DF828000320BD
:1019A0008DF8290000208DF82A0001208DF82B00E9
:1019B00009A93348FFF794FD022200213148FFF7BF
:1019C000D7FD0120099002208DF8280003208DF812
:1019D000290000208DF82A0001208DF82B0009A98C
:1019E0002848FFF77DFDB320ADF818000020ADF8C2
:1019F0001A0040F6B73007900020ADF8200006A985
:101A0000214800F0D5FF6020ADF804000120ADF8BA
:101A100006000020ADF8100040F28A70039001A982
:101A2000194800F01BFF0821174800F067FF01214B
:101A3000154800F08FFE0121134800F09AFE602047
:101A4000ADF804000120ADF806000020ADF810004C
:101A500040F28A70039001A90B4800F059FF082159
:101A6000094800F091FF0121074800F073FE0121B1
:101A7000054800F07EFE00F083FC0BB000BD0000C6
:101A8000001C024000200240000C004000BFFEE7A6
:101A900070B50024A52506E1864802F01FF904462A
:101AA0008548006890F8860006287DD2DFE800F0BF
:101AB00003223C6A83B1AC4216D101207E490968F9
:101AC00081F886007C480068B0F887107A48006882
:101AD000B0F88700401C784A1268A2F88700764860
:101AE0000068801D445404E0002073490968A1F88F
:101AF0008700D7E07048006884806F480068B0F8BD
:101B000087106D480068B0F88700401C6A4A126868
:101B1000A2F8870068480068801D44540220664986
:101B2000096881F88600BDE063480068808840EA63
:101B300004206149096888805F480068B0F8871010
:101B40005D480068B0F88700401C5B4A1268A2F844
:101B5000870059480068801D4454574800688088B1
:101B6000772805D203205449096881F8860008E0E7
:101B700000205149096881F886004F490968A1F899
:101B800087008FE04C480068B0F887104A4800682A
:101B9000B0F88700401C484A1268A2F887004648FF
:101BA0000068801D445400E072E004204249096846
:101BB00081F8860076E040480068B0F887103E481B
:101BC0000068B0F88700401C3B4A1268A2F8870002
:101BD00039480068801D445437480068B0F88700D1
:101BE000052815D1052134480068801D02F002FC4B
:101BF00028B105203049096881F8860008E00020F6
:101C00002D49096881F886002B490968A1F88700E9
:101C100048E029480068B0F88710274800688088A5
:101C20000930814210D224480068B0F88710224859
:101C30000068B0F88700401C1F4A1268A2F88700AD
:101C40001D480068801D44541B480068B0F8871088
:101C50001948006880880930814218D3002016494D
:101C6000096881F8860014490968A1F887001248BC
:101C70000068808800F109010F480068801D02F0AB
:101C800099FB20B10C480068801D02F0BDFA09E004
:101C900000200949096881F8860007490968A1F808
:101CA000870000BF00BF034802F090F800287FF4CF
:101CB000F3AE70BDC80A0020BC00002010B5194862
:101CC000406818490860FFF731FE16494860164918
:101CD000C8601448406813490968401A114988606F
:101CE00001F00EFBFFF712FEFFF72AFA00F06CFB83
:101CF0000E4BB3F924200E4BB3F9183059420C4B5C
:101D0000B3F918000B4B1B68FEF7BCFDFFF70EFE86
:101D10000549086108460069C968401A02494861D6
:101D200010BD0000100500201C0500203405002017
:101D3000DC1000209800002010B5FFF7F7FD0649E1
:101D40000860FFF7F3FD04494860084640680968E9
:101D5000401A0149886010BD1C05002010B500F034
:101D60001DFBFEF7D5FBFEF7BDFB10BD70477047AE
:101D700010B501F0E5FE02F007FB10BD704700BF93
:101D8000FEE7704770B5002100230F22C4781CB312
:101D9000174C246804F4E064C4F5E064C4F307213C
:101DA000C1F10404E3B20A4144789C40E1B2847872
:101DB000144021430C07210E0E4C05786155047820
:101DC00004F01F050124AC4005786D11AD0005F14C
:101DD000E025C5F8004109E0047804F01F0501245E
:101DE000AC40054D0678761145F8264070BD0000E0
:101DF0000CED00E000E400E080E100E00249014376
:101E0000024A1160704700000000FA050CED00E086
:101E1000B0EE401A10B99FED790A704790ED100AA4
:101E200080ED110A90ED0F0A80ED100AC0ED060A50
:101E300080ED071A30EEC10A80ED0F0A0178002903
:101E400075D190ED010AD0ED0F1A20EE210A80ED38
:101E5000090A90ED0A0AD0ED021A90ED0F2A01EE60
:101E6000820A80ED0A0A90ED0D0A80ED0E0A90EDCF
:101E70000C0A80ED0D0A90ED0F0AD0ED101A30EE2D
:101E8000610A80ED0C0A90ED030AD0ED0C1A20EEE9
:101E9000210A80ED0B0A90ED0A0AD0ED051AB4EE86
:101EA000E10AF1EE10FA04DD90ED050A80ED0A0A70
:101EB00010E090ED0A0AD0ED051AF1EE611AB4EEC9
:101EC000E10AF1EE10FA05D290ED050AB1EE400AF2
:101ED00080ED0A0A90ED090AD0ED0A1A30EE210AC7
:101EE000D0ED0B1A30EE210A80ED080A90ED080AB9
:101EF000D0ED041AB4EEE10AF1EE10FA04DD90ED33
:101F0000040A80ED080A76E090ED080AD0ED041A84
:101F1000F1EE611AB4EEE10AF1EE10FA6BD290ED37
:101F2000040AB1EE400A80ED080A64E0FFE7017898
:101F3000012960D190ED0F0AD0ED101A30EE610A40
:101F4000D0ED011A20EE210A80ED090A90ED020A77
:101F5000D0ED0F1A20EE210A80ED0A0A90ED0D0A4D
:101F600080ED0E0A90ED0C0A80ED0D0A90ED0F0A3F
:101F7000D0ED101AB0EE002A02EE610AD0ED111A6F
:101F800030EE210A80ED0C0A90ED030AD0ED0C1A18
:101F900020EE210A80ED0B0A90ED090AD0ED0A1A15
:101FA00030EE210AD0ED0B1A30EE210AD0ED081ADE
:101FB00030EE210A80ED080A90ED080AD0ED041AEF
:101FC000B4EEE10AF1EE10FA04DD90ED040A80EDC2
:101FD000080A10E090ED080AD0ED041AF1EE611A3B
:101FE000B4EEE10AF1EE10FA05D290ED040AB1EE7A
:101FF000400A80ED080A90ED080A0EE70000000094
:1020000000B102B97047017092ED001A80ED011A1B
:1020100092ED011A80ED021A92ED021A80ED031A78
:1020200080ED040AC0ED050A9FED0C1A80ED0E1A32
:1020300080ED0D1A80ED0C1A9FED081A80ED081A3C
:1020400080ED0B1A80ED0A1A80ED091A80ED111A45
:1020500080ED101A80ED0F1A00BFD3E700000000DA
:1020600029B1064A12680243044B1A6004E0034A8D
:1020700012688243014B1A607047000030380240FA
:1020800029B1064A12680243044B1A6004E0034A6D
:1020900012688243014B1A607047000040380240CA
:1020A00029B1064A12680243044B1A6004E0034A4D
:1020B00012688243014B1A607047000020380240CA
:1020C00029B1064A12680243044B1A6004E0034A2D
:1020D00012688243014B1A60704700004438024086
:1020E00029B1064A12680243044B1A6004E0034A0D
:1020F00012688243014B1A60704700002438024086
:10210000F0B5002100220024022500260223324FD0
:102110003F6807F00C0121B1042905D0082937D107
:1021200005E02E4F076036E02D4F076033E02A4F61
:102130003F1F3F68C7F38056274F3F1F3F6807F098
:102140003F036EB1264FB7FBF3F7DFF88CC0ACF15D
:10215000040CDCF800C0CCF3881C07FB0CF40CE08A
:102160001E4FB7FBF3F7DFF870C0ACF1040CDCF8DE
:1021700000C0CCF3881C07FB0CF4174F3F1F3F68CF
:10218000C7F301477F1C7D00B4FBF5F7076002E051
:10219000124F076000BF00BF0F4F3F6807F0F0010C
:1021A0000909104F7A5C0768D74047600A4F3F68BB
:1021B00007F4E051890A0B4F7A5C4768D740876083
:1021C000054F3F6807F46041490B064F7A5C47684A
:1021D000D740C760F0BD0000083802400024F4007A
:1021E000001BB7001400002070B590B004460E46E6
:1021F000154601214A48FFF733FF01211020FFF760
:102200005FFF01211020FFF76BFF00211020FFF777
:1022100067FF072211464348FFF7AAF980200E9076
:1022200002208DF83C0000208DF83E0003208DF840
:102230003D0000208DF83F000EA93A48FFF750F905
:10224000394800F0A7FD39480A900020ADF82C006D
:10225000ADF82E004FF48060ADF830000420ADF8EA
:1022600032000020ADF834000AA92F4800F05AFED1
:10227000012240212C4800F084FD10212A4800F062
:102280006BFD012240F22441274800F025FE012188
:10229000254800F06AFD25208DF83C0004208DF8CB
:1022A0003D0000208DF83E0001208DF83F000FA872
:1022B000FFF768FD1E48FEF77DFF4FF000600190BC
:1022C0001948001D02900394002004900595069083
:1022D0004FF4806007900020089009904FF48070C0
:1022E0000A904FF440300B9000200C900D900E900F
:1022F0000F9001A90E48FFF72FF8002231460C4835
:10230000FFF70FF801210A48FFF700F800210848FD
:10231000FEF744FF01210648FEF740FF10B070BDF4
:10232000020040000004024000100140A0860100AD
:102330004064024010B501F025FE4FF4806206496A
:10234000064801F0E8FC4FF400720549A1F5007061
:1023500000F0E8FB10BD0000E00A0020C80A0020E1
:10236000C808002010B540F6A431044800F01BFB5B
:102370004FF49671014800F018FB10BD000C0040AE
:1023800010B54FF4E171044800F00DFB40F21A4122
:10239000014800F00AFB10BD000C004010B50948D0
:1023A000C07A012801D1FFF7EBFF0648C07A032865
:1023B00001D1FFF7D7FF0348C07A022801D1FFF708
:1023C000DFFF10BDB00400200248B0F90800024948
:1023D00008607047B00400209800002000B101B9E7
:1023E00070470278437842EA0322C2F30A020A8065
:1023F0004278D210837842EA4312C2F30A024A803A
:1024000082789211C37842EA8302037942EA8322F6
:10241000C2F30A028A8002795210437942EAC31257
:10242000C2F30A02CA804279C2F301128A72427967
:1024300012119308CB728279C37942EA032212B255
:102440008A81027A437A42EA032213B201F10C0232
:10245000CB81827AC37A42EA032213B201F10C02E1
:102460000B82037B8B74437BCB74827BC37B42EAFE
:1024700003228A82027C437C42EA032212B20A814E
:102480000A88A2F5806212B20A804A88A2F58062A8
:1024900012B24A808A88A2F5806212B28A80CA8803
:1024A000A2F5806212B2CA800A89A2F5806212B2D5
:1024B0000A8100BF94E7000070B5002400BF1EE051
:1024C00000F0EEF8054604EB44000E4901EB8000F5
:1024D0008068281A04EB44010A4A02EB8101C9888A
:1024E00088420AD304EB4400114601EB800085606A
:1024F00004EB440152F821008047601CC4B2072C51
:10250000DED370BD3C000020002000BF1FE000EBC8
:102510004001104A02EB810189884FF47A7292FBE4
:10252000F1F100EB40020B4B03EB8202D18000EB98
:1025300040011A4602EB8101C988012905DA01210F
:1025400000EB400203EB8202D180411CC8B2072895
:10255000DDD370473C0000200CB5002001900090B6
:102560004148006840F480303F49086000BF3E4861
:10257000006800F4003000900198401C0190009821
:1025800018B90198B0F5A04FF1D13748006800F4B0
:10259000003010B10120009001E000200090009870
:1025A000012860D130484030006840F080502E490A
:1025B000403108602D48006840F440402B490860D5
:1025C0002948083000682849083108600846006832
:1025D00040F4004008600846006840F4A0500860DD
:1025E0002348091F0860081F006840F08070091F19
:1025F000086000BF1C48006800F000700028F9D097
:102600001A48006840F480301849086000BF174835
:10261000406800F480300028F9D01448006840F485
:1026200000301249086000BF1048406800F40030D4
:102630000028F9D040F205700E4908600A480830B9
:10264000006820F003000849083108600846006867
:1026500040F00200086000BF03480830006800F046
:102660000C000828F8D10CBD003802400070004072
:10267000062D4008003C0240042808D14FF0E0211C
:10268000096941F004014FF0E022116107E04FF0C9
:10269000E021096921F004014FF0E0221161704747
:1026A00001480068704700002C00002010B5054864
:1026B0000068401C0349086001F074FE01F0C6FB8D
:1026C00010BD00003000002010B51548006840F42F
:1026D0007000134908601348006840F00100114978
:1026E000086000200F49083108600E4800680E4954
:1026F00008400C4908600D48091D0860081F006863
:1027000020F48020091F0860002006490C31086071
:10271000FFF722FF4FF0006001498039086010BDCB
:1027200088ED00E000380240FFFFF6FE1030002484
:1027300010B50121064800F037F838B101210448EE
:1027400000F014F80021024800F013F810BD00005A
:102750000010004021B1028842F08002028004E0B3
:1027600002884FF67F731A4002807047CA43028284
:10277000704721B1028842F00102028004E0028821
:102780004FF6FE731A400280704731B1B0F8442012
:1027900042F40042A0F8442005E0B0F84420C2F31F
:1027A0000E02A0F84420704730B5024600200023F6
:1027B0000024158A05EA0103958905EA010413B18D
:1027C0000CB1012000E0002030BD000070B50024F5
:1027D00000220023058C4FF6FE7635400584028CDE
:1027E0008388048B4FF68F752C40B51E2C400D88C6
:1027F0002C43751E2A408D892A434D882A43104D4B
:10280000A84202D00F4DA84213D14FF6F7752A40C7
:10281000CD892A434FF6FB752A408D882A434FF60F
:10282000FF652B404FF6FF552B400D8A2B434D8AF9
:102830002B43838004838D684563028470BD000050
:1028400000000140000401400A460021018B4FF6C0
:10285000F7731940114301837047000070B50024DD
:1028600000220023058C4FF6FF6635400584028C5C
:102870008388848B4FF68F752C404FF6FC752C4067
:102880000D882C434FF6FF552A408D894FF6FF7671
:1028900006EA05252A434D8806EA05252A43154DF3
:1028A000A84202D0144DA8421DD14FF2FF752A4014
:1028B000CD894FF6FF7606EA05252A434FF6FF3508
:1028C0002A408D8806EA05252A434EF6FF752B40DF
:1028D0004DF6FF752B400D8A06EA05152B434D8AF0
:1028E00006EA05152B43838084838D68C5630284C3
:1028F00070BD000000000140000401400A460021B4
:10290000818B4FF6F77319401143818370470000A4
:1029100070B5002200230024058C4EF6FF7635406A
:102920000584038C8488828B48F6FF752A404FF615
:10293000FF452A400D884FF6FF7606EA05252A4313
:102940004DF6FF752B408D8906EA05352B434D88E2
:1029500006EA05352B430A4DA84202D0094DA8428C
:1029600008D14BF6FF752C400D8A4FF6FF7606EA2C
:1029700085152C43848082838D680564038470BD33
:1029800000000140000401400A460021818B4FF203
:10299000FF7319404FF6FF7303EA02231943818343
:1029A000704741637047C16370470164704700001E
:1029B00000220288184B98420ED0184B98420BD038
:1029C000B0F1804F08D0164B984205D0154B984275
:1029D00002D0154B984204D14FF68F731A404B88A2
:1029E0001A43124B984207D0114B984204D04FF62D
:1029F000FF431A400B891A4302804B68C3620B885D
:102A00000385054B984202D0044B984201D18B7A42
:102A100003860123838270470000014000040140C7
:102A20000004004000080040000C0040001000407E
:102A30000014004010B540F22551344800F022FA4D
:102A400018B1324800F0D8FA5FE040F224412F4834
:102A500000F018FA002858D02C4800F0CDFA2C4885
:102A6000FEF76FFC40BB00212948FEF797FB284882
:102A7000FEF763FCC0F12400264908802421244885
:102A8000FEF796FC2248006840F4002020490860C8
:102A900021491F48FEF768FB01211D48FEF77EFB18
:102AA0001C480088122830D11C491D48FFF796FCAD
:102AB0000020FEF781FC28E000211548FEF76EFBA0
:102AC0001348FEF73AFCC0F1240012490880242183
:102AD0000F48FEF76DFC0E48006820F400200C49FA
:102AE00008600D490A48FEF73FFB01210848FEF740
:102AF00055FB08480088122807D1084908482430A7
:102B0000FFF76CFC0020FEF757FC10BD00100140E1
:102B1000406402403800002000003010B004002063
:102B2000C604002070B596B004460D461646012135
:102B30004FF04010FFF794FA01212020FFF7C0FA70
:102B400001212020FFF7CCFA00212020FFF7C8FA4E
:102B5000082209214448FEF70BFD08220E214248B5
:102B6000FEF706FD4FF48440149002208DF85400C7
:102B700003208DF8550000208DF8560001208DF8B7
:102B8000570014A93848FEF7ABFC4FF4E130109021
:102B90000020ADF84400ADF84600ADF848000C2028
:102BA000ADF84A000020ADF84C0010A92F4800F005
:102BB000B9F9012240212D4800F0E3F810212B48FB
:102BC00000F0CAF8012240F22441284800F084F9BC
:102BD0000121264800F0C9F847208DF83C0002206A
:102BE0008DF83D0000208DF83E0001208DF83F005B
:102BF0000FA8FFF7C7F81E48FEF7DCFA4FF0206079
:102C000000901A48001D01900294002003904FF498
:102C100000700490002005904FF480600690002022
:102C2000079008904FF4807009904FF440300A905C
:102C300000200B900C900D900E9069460C48FEF70A
:102C40008BFB002229460A48FEF76BFB012108484E
:102C5000FEF75CFB00210648FEF7A0FA01210448BC
:102C6000FEF79CFA16B070BD001802400014014037
:102C70002864024010B540F22551304800F002F9B6
:102C800018B12E4800F0B8F956E040F224412B4824
:102C900000F0F8F800284FD0284800F0ADF9284897
:102CA000FEF74FFB20BB00212548FEF777FA2448AA
:102CB000FEF743FBC0F50070224908804FF4007115
:102CC0001F48FEF775FB1E48006840F400201C49B1
:102CD00008601D491A48FEF747FA01211848FEF717
:102CE0005DFA184802881949194801F01FF823E0D5
:102CF00000211348FEF752FA1148FEF71EFBC0F5FB
:102D00000070104908804FF400710D48FEF750FB29
:102D10000B48006820F40020094908600A49084867
:102D2000FEF722FA01210648FEF738FA0548028824
:102D30000849074800F0FAFF10BD000000140140E8
:102D400028640240CC00002000003010C80600209B
:102D5000C80A0020C808002001F40072B2F5007F04
:102D600000D100BFCA430280704721B1828942F47A
:102D70000052828104E082894DF6FF731A408281FD
:102D800070471AB1838A0B43838202E0838A8B43A4
:102D90008382704710B504463248844208D101212D
:102DA0001020FFF79DF900211020FFF799F957E057
:102DB0002D48844209D101214804FFF771F900210F
:102DC0004FF40030FFF76CF94AE02848844209D1FB
:102DD00001218804FFF764F900214FF48020FFF7F8
:102DE0005FF93DE02248844209D10121C804FFF780
:102DF00057F900214FF40020FFF752F930E01D4849
:102E0000844209D101210805FFF74AF900214FF456
:102E10008010FFF745F923E01748844208D10121CB
:102E20002020FFF75DF900212020FFF759F917E076
:102E30001248844209D101218807FFF731F90021A6
:102E40004FF08040FFF72CF90AE00D48844207D18B
:102E500001214005FFF724F900216005FFF720F963
:102E600010BD000000100140004400400048004038
:102E7000004C004000500040001401400078004029
:102E8000007C004070B5024600240023002500208D
:102E900040F66A16B14200D100BFC1F3421501F0FD
:102EA0001F03012606FA03F3012D02D19689334050
:102EB00006E0022D02D1168A334001E0968A3340A3
:102EC0000C12012606FA04F41688344013B10CB132
:102ED000012000E0002070BDF0B50346002400266C
:102EE0000025002040F66A17B94200D100BF1846FD
:102EF000C1F3421401F01F06012707FA06F5012C61
:102F000001D10C3004E0022C01D1103000E014306B
:102F10001AB107682F43076002E00768AF430760F4
:102F2000F0BD00002DE9FF4705460E460024A146EE
:102F300000BFA046B08900B100BF2C8A24F44054E1
:102F4000F08804432C82AC8941F20C608443B08841
:102F500031890843718908430443AC81AC8A24F465
:102F60004074B0890443AC826846FFF7C9F8204832
:102F7000854202D01F48854202D1DDF80C9001E065
:102F8000DDF80890A88900F4004040B109EBC900C1
:102F900000EB091031684900B0FBF1F707E009EBDD
:102FA000C90000EB091031688900B0FBF1F764201B
:102FB000B7FBF0F004012009642101FB1078A88917
:102FC00000F4004040B1322000EBC800B0FBF1F04B
:102FD00000F00700044308E0322000EB08106421F1
:102FE000B0FBF1F000F00F0004432C81BDE8FF8737
:102FF000001001400014014001468888C0F3080019
:10300000704700BFFEE7000010B5024800F086F8E8
:1030100010BD0000DC10002038B504469FED220AE8
:103020008DED000AD4ED590AB0EE600A684600F052
:1030300015F92079012803D100212183A18538BD0C
:103040009DED000AB1EE400A84ED050A9DED000AEF
:1030500084ED0A0A94ED051AF0EE410A94ED041A83
:10306000B0EE410A04F13000FEF7D2FE94ED0A1AE8
:10307000F0EE410A94ED091AB0EE410A04F1C000E5
:10308000FEF7C6FE94ED140ABDEEC00A10EE100A5B
:1030900001B2218394ED380ABDEEC00A10EE100A89
:1030A00001B2A18500BFCAE70000000000B9704767
:1030B0008168B1F9021000EE101AB8EEC00A80ED76
:1030C000040AC169B1F9021000EE101AB8EEC00A84
:1030D00080ED090A90ED180ADFED0D0A20EE200AB6
:1030E00080ED030A90ED3C0ADFED090A20EE200A8C
:1030F00080ED080A90ED040ADFED060A80EE201A42
:103100009FED050A21EE000A80ED580A00BFCEE7C8
:1031100000007A44000070427CD9203E10B504467D
:1031200004B910BD0120207100F028FF206000F0DC
:103130001DFFA06000F01EFFE061DFED1C0A9FEDA7
:103140001C0A1C4A002104F13000FEF759FFDFED94
:103150001A0AB1EE080A194A002104F17800FEF7B4
:103160004FFFDFED120A9FED120A124A002104F10F
:10317000C000FEF745FFDFED100AB1EE080A0F4A66
:10318000002104F17800FEF73BFF0D499FED0D0A89
:1031900004F5A87000F048FE9FED050A84ED5C0A76
:1031A0009FED090A84ED5D0A00BFBAE70000FA440A
:1031B00000007A44BC4A0008CDCC4C3EC84A000806
:1031C000D44A00086F12833A00007AC470B52DED1E
:1031D000028B06460C4604B116B9BDEC028B70BDDD
:1031E0002068B0F904000A2805DC2068B0F9040062
:1031F00010F10A0F03DA2068B0F9045000E000254E
:1032000000EE105AB8EEC00ADFED100A20EE208A58
:10321000B0EE480A04F5A87000F0DBFD9FED0C0A43
:10322000B4EEC08AF1EE10FA0AD29FED0A0AB4EEAB
:10323000C08AF1EE10FA03DD9FED070A84ED550A0E
:1032400094ED550A86ED000A00BFC6E7A69BC43B75
:1032500090C275BD90C2753D0000000010B52DED07
:10326000068BB0EE408A044618EE100A01F00AFA06
:1032700041EC1A0B9FED060B53EC102B01F004F9F7
:1032800041EC190B01F0CEF82060BDEC068B10BDAF
:10329000000000100000784010B52DED028B82B0C8
:1032A00004461CB902B0BDEC028B10BD9FED110AA3
:1032B0008DED010A9FED0F8A214601A8FFF786FFD9
:1032C0002079012803D19FED0B0A84ED590A20795A
:1032D00068B994ED5C0AB0EE401A94ED5D0AF0EE28
:1032E000400A9DED010A00F0EBFD84ED590A00BF94
:1032F000D8E700000000000000B9704700BFFCE7FD
:1033000010B50648FFF7F8FF0448FFF7CFFE034863
:10331000FFF7C2FF0148FFF77FFE10BDDC10002061
:10332000EFF3108070472DED020B019820F0004064
:1033300001909DED000B02B0704780F3108870473C
:1033400030B58BB005460C4601214020FEF798FEB3
:1033500001218020FEF784FE01214020FEF7A0FE1F
:1033600000214020FEF79CFE092206212048FEF79E
:10337000FFF84020099002208DF8280003208DF8E6
:10338000290000208DF82A0002208DF82B0009A9C1
:103390001748FEF7A5F86020ADF804000120ADF84D
:1033A00006000020ADF8100001A91248FFF70EFA40
:1033B00008211048FFF748FA01210E48FFF7CAF923
:1033C000681E0790601E80B2ADF818000020ADF8AE
:1033D0001A00ADF8200006A90648FFF7E9FA012116
:1033E0000448FFF7C6F900F007F80BB030BD000045
:1033F000001C02400018004010B500210148FFF7F2
:10340000D0FA10BD0018004070B504460D460448BF
:103410000480294602482838FFF7C3FA70BD00002F
:103420002818004010B5024800F0BAF910BD00009D
:10343000480100202DE9F04107460C4615461E467E
:1034400017B10CB105B10EB9BDE8F0810B48007899
:10345000012806D133462A462146384600F054FA60
:1034600009E006480078042805D133462A4621465B
:10347000384600F027FA00BFE6E7000037000020DA
:1034800000B970470168897A022903D10421104AE2
:1034900011700DE00168897A032903D101210C4ADA
:1034A000117005E00168897A012901D1084A11707B
:1034B00007490978012902D10221017205E0044976
:1034C0000978042901D10221017200BFD9E7000067
:1034D0003700002030B52DED088B85B005469FEDF7
:1034E0006D0AB0EE408A9FED6B0AB0EE409A9FEDF8
:1034F000690AF0EE408A0020019002900390049047
:103500000024D5ED7E1AB0EE611AD5ED7D1AF0EEED
:10351000610AD5ED7C1AB0EE610A01A800F02EFB1D
:10352000287A03281AD100BF12E001A800EB84001A
:1035300090ED000ABDEEC00A10EE100A01B204EBD5
:10354000840205F10C0000EB82000182601CC4B211
:10355000042CEADB05B0BDEC088B30BD002434E060
:1035600001A800EB840090ED000A04EB840105F152
:103570000C0000EB810080ED030A04EB840205F1EE
:103580000C0000EB820090ED030A10EE101A0846C2
:1035900001F078F841EC1B0BB0EE4B0AF0EE6B0A31
:1035A000FFF7C1FEB0EE40AAF0EE60AA51EC1A0B94
:1035B00000F038FF08EE900AB4EEE88AF1EE10FA57
:1035C00001D2B0EE688A601CC4B2042CC8DBB1EE34
:1035D000000AB4EEC08AF1EE10FA1DDDB1EE000A69
:1035E000C0EE080AB0EE609A002413E004EB8401F8
:1035F00005F10C0000EB810090ED030A20EE090AB2
:1036000004EB840105F10C0000EB810080ED030A5E
:10361000601CC4B2042CE9DB00241DE004EB84022E
:1036200005F10C0101EB820191ED031AF0EE410A64
:1036300004EB840205F10C0101EB820191ED021A09
:10364000B0EE410A04EBC40205F15C0101EBC200DB
:10365000FEF7DEFB601CC4B2042CDFDB002415E0A7
:1036600004EBC40105F15C0000EBC10090ED080A19
:10367000BDEEC00A10EE100A01B204EB840205F19F
:103680000C0000EB82000182601CC4B2042CE7DB5A
:1036900000BF5FE70000000000B97047002100BFD5
:1036A0002DE001EB810300F10C0252F82320B2F966
:1036B000022000EE102AB8EEC00ADFED360A20EE36
:1036C000200A01EB810300F10C0202EB830282ED80
:1036D000020A01EBC10300F15C0202EBC30292EDAE
:1036E0000C0ADFED2D0A20EE200A01EB810300F128
:1036F0000C0202EB830282ED010A4A1CD1B20429BA
:10370000CFDB90ED050AB1EE400AD0ED0A0A30EEAB
:10371000200AD0ED0F0A30EE200AD0ED140A30EE68
:10372000600AF5EE000A20EE200A80ED790A90ED9D
:10373000050AB1EE400AD0ED0A0A30EE600AD0ED7B
:103740000F0A30EE200AD0ED140A30EE200AF5EE12
:10375000000A20EE200A80ED7A0A90ED050AB1EE0B
:10376000400AD0ED0A0A30EE600AD0ED0F0A30EEC2
:10377000600AD0ED140A30EE600AF5EE000A20EE81
:10378000200ADFED060A80EE201A80ED7B1A00BFCA
:1037900083E700000A01DA390000FA43CDCC4C3E41
:1037A00070B5044604B970BD0320207200F0E6FB3A
:1037B0002060002517E0284600F0C4FB05EB8502D9
:1037C00004F10C0141F8220005EBC502503101EB78
:1037D000C200DFED1C0A9FED1C0A1C4A0021FEF707
:1037E0000FFC681CC5B2042DE5DBDFED190AB1EE54
:1037F000080A184A002104F5BE70FEF701FC1649BC
:103800009FED160A04F5E27000F00EFB14499FEDDF
:10381000130A04F5EA7000F007FBB0EE080A84ED25
:10382000820AB8EE080A84ED830A9FED0E0A84ED41
:10383000840A9FED0D0A84ED850A2046FFF72CFFD0
:1038400000BFB0E70000FA4400007A467C47000859
:10385000CDCC4C3E88470008944700086F12033BCC
:10386000984700089A9939409A9939C000B9704729
:10387000417A027A914200D1F9E7417A31B1017A75
:1038800021B99FED0F0A80ED800A14E0417A0129E9
:1038900007D0017A012904D190ED860A80ED810AD2
:1038A00009E0417A022906D0017A022903D190ED7C
:1038B000860A80ED810A017A417200BFD7E70000D5
:1038C000000000002DE9F04106460F4615461C4653
:1038D00016B10FB105B10CB9BDE8F08122463946E9
:1038E000304600F027F82068B0F9040000EE100A16
:1038F000B8EEC00ADFED030A20EE200A85ED000ACB
:1039000000BFE9E70AD723BC10B109B102B103B97E
:1039100070479FED070A80ED000A9FED050A81EDD3
:10392000000A9FED030A82ED000A00BFF0E70000E5
:10393000000000002DE9F0412DED028B074688467E
:1039400014461CB117B1B8F1000F03D1BDEC028BC6
:10395000BDE8F0812068B0F902000A2805DC206883
:10396000B0F9020010F10A0F03DA2068B0F9025032
:1039700000E000252068B0F900000A2805DC206876
:10398000B0F9000010F10A0F03DA2068B0F9006006
:1039900000E0002600EE105AB8EEC00ADFED350A4E
:1039A00020EE208A00EE106AB8EEC00ADFED320A7F
:1039B00060EE208A2068007D00F0010020B19FEDBC
:1039C0002F0AB0EE408A08E02068007D00F0020077
:1039D00018B19FED2B0AB0EE408A2068007D00F000
:1039E000040020B19FED270AF0EE408A08E020682D
:1039F000007D00F0080018B19FED230AF0EE408A28
:103A0000B0EE480A04F5E27000F0E3F9B0EE680A9F
:103A100004F5EA7000F0DDF99FED1C0AB4EEC08AEF
:103A2000F1EE10FA0AD29FED1A0AB4EEC08AF1EE56
:103A300010FA03DD9FED170A84ED720A9FED160A56
:103A4000F4EEC08AF1EE10FA0AD29FED140AF4EEF9
:103A5000C08AF1EE10FA03DD9FED0E0A84ED760ABE
:103A600094ED720A87ED000A94ED760A88ED000A5B
:103A700000BF6BE7A69BC43B0AD7A3BB6666A63F05
:103A80006666A6BF9A99993F9A9999BF90C2753D6B
:103A900090C275BD00000000CCCC4C3DCCCC4CBDE0
:103AA00010B52DED028B84B004461CB904B0BDECFA
:103AB000028B10BD9FED1C0A8DED030A9FED1A0AC3
:103AC0008DED020A9FED180A8DED010A234601AA29
:103AD00002A903A8FFF7AEFC207A022822D19DEDAF
:103AE000010AB0EE408A84ED7E8A94ED820AB0EE3F
:103AF000401A94ED830AF0EE400A9DED030A00F0AF
:103B0000DFF984ED7C0A94ED840AB0EE401A94ED5E
:103B1000850AF0EE400A9DED020A00F0D1F984ED2D
:103B20007D0A00BF00BFC1E70000000010B50446D9
:103B300004B910BD2046FFF7A3FC00BFF9E7000061
:103B400010B50D48FFF7F2FF0B48FFF78FFE0A484C
:103B5000FFF7A2FD0848FFF7A3FF0748FFF7BAFCED
:103B6000054CB4F95830B4F94420B4F93010B4F924
:103B70001C00FCF755FE10BD48010020F1EE401A74
:103B800071EEE01A9FED102A42EE011AC0ED001A04
:103B900070EE601A9FED0C2A42EE011AC0ED011A78
:103BA00070EE201A9FED092A42EE011AC0ED021AAA
:103BB000F1EE401A71EEA01A9FED042A42EE011AAE
:103BC000C0ED031A70470000EB5138BEAF4761BE2D
:103BD00070B504460025681FFEF74EFD13480068C7
:103BE0001349B0FBF1F013490870104800684FF416
:103BF000FA51B0FBF1F0104908600CB94FF47A7437
:103C00000A480068B0FBF4F0C5086D1E4FF0E020D4
:103C1000006940F002004FF0E0210861084645616C
:103C2000006940F00100086170BD00000000002044
:103C300000127A00240000202800002070B50346FE
:103C4000002400210020002200254FF0E0267569A5
:103C50000D4E366803FB06F44FF0E026B16910E024
:103C60004FF0E026B06988420BD0884202D20E1A8B
:103C7000324402E02E1A0E4432440146A24200D3DE
:103C800000E0EDE700BF70BD2800002070B50346DE
:103C9000002400210020002200254FF0E026756955
:103CA0000D4E367803FB06F44FF0E026B16910E0C4
:103CB0004FF0E026B06988420BD0884202D20E1A3B
:103CC000324402E02E1A0E4432440146A24200D38E
:103CD00000E0EDE700BF70BD2400002070B5044691
:103CE0000026FFF71DFB054672B661682069884211
:103CF00001D920682061206906782069401C206174
:103D0000A068401CA060E068401EE0602846FFF705
:103D100014FB304670BD034619608818401E586079
:103D20009A600020D8601961596170472DE9F04709
:103D3000044688461546FFF7F3FA824672B6B8F194
:103D4000000F00D13CE0A06800B939E0616860690B
:103D5000884201D920686061A068A84201DD284638
:103D600000E0A068054661696068401A461CAE42E2
:103D700009DB2E46324641466069FCF78DFA6069E0
:103D8000304460610FE0A5EB0609324641466069A8
:103D9000FCF782FA08EB06014A462068FCF77CFA39
:103DA000206848446061A068401BA060E068284427
:103DB000E0602F465046FFF7C0FA3846BDE8F0876E
:103DC0005046FFF7BAFA4FF0FF30F7E70146C868F0
:103DD000704710EE101A0160816800EE901AC168F9
:103DE00001EE101A70EE811A816800EE901A80EED2
:103DF000A11A416800EE901A61EE200A816801EE76
:103E0000101AC16801EE901A31EE212A01EE101A43
:103E1000C1EE021A016801EE101A41EE810A10EE9D
:103E2000901A41607047000010EE102AC2600A68C4
:103E30008260DFED050A10EE902A0260DFED020AD3
:103E400010EE902A426070470000000010B50E4846
:103E50000078401C0C49087008460078322811D1BF
:103E60000A48007800F020F808480078401C07490C
:103E7000087008460078082801D10020087000204A
:103E80000149087010BD00003400002035000020FA
:103E900010B504464FF4807040FA04F10148FDF774
:103EA0008CFB10BD0018024010B504464FF4807022
:103EB00040FA04F10148FDF782FB10BD00180240F2
:103EC000F0EE401AF4EEE01AF1EE10FA02D2B0EE83
:103ED000600A7047F4EEC11AF1EE10FA02DDB0EE9E
:103EE000410AF6E7B0EE610AF3E7000030B5034699
:103EF00013B94FF6FF7030BD09E013F8014B82EAA9
:103F00000400C0B2054D35F8100080EA2222081ED8
:103F1000A1F10101F1D11046EDE70000BA48000817
:103F200030B5034605E013F8010B80EA02040448AB
:103F3000025D081EA1F10101F5D1104630BD00005F
:103F4000B9470008014601F0030000EB8000024A77
:103F500002EB400070470000F80000200048704766
:103F6000E400002000487047EE0000200048704741
:103F7000D000002000487047DA0000200048704759
:103F8000B004002010B51D480021016001711C48DB
:103F9000016001711B48018081701B4801701C2168
:103FA0001A48FCF712FA1A4800210160194801600A
:103FB000194801808170194801800F211848FCF7C9
:103FC00004FA0E211748FCF7DEF910211648FCF719
:103FD000DAF9164800210170154801801548017072
:103FE00015480160818015480170154801604160E5
:103FF00081601E211348FCF7C6F910BDC0000020E7
:10400000C50000209C0000209F000020E00E002042
:10401000A0000020A4000020A8000020AB00002089
:10402000FC0E00200B0F0020190F0020AD00002017
:10403000AE000020B0000020B1000020B70000203A
:10404000290F0020B50F00201CB501214020FEF7EC
:1040500007F84FF40050009001208DF80400002074
:104060008DF8060003208DF8050001208DF807006B
:1040700069460348FDF734FA00F004F81CBD00005F
:104080000018024010B54FF400510248FDF795FAB0
:1040900010BD0000001802401CB501217020FDF782
:1040A000DFFF4FF48040009001208DF804000020D5
:1040B0008DF8060003208DF8050001208DF807001B
:1040C00069460F48FDF70CFA4FF40060009069460E
:1040D0000C48FDF705FA00F019F800F021F84FF44C
:1040E000FF70009069460848FDF7FAF9002404E0E3
:1040F0002046FFF7CDFE601CC4B2082CF8DD1CBDC5
:1041000000140240001002400018024010B54FF4A5
:1041100080410248FDF74FFA10BD00000014024034
:1041200010B54FF400610248FDF745FA10BD0000DC
:1041300000100240FCF791FA6420FFF77FFDFEF7C4
:10414000E3F901E0FEF7B8F9FCE700000246501A77
:10415000B0F5805F03DDA0F5F850FF3805E010F5FD
:10416000805F02DA41F6FF73184400EE100AB8EEE1
:10417000C00ADFED020A20EE200A7047DB0F493A41
:104180001CB501218020FDF76BFF3C200090012031
:104190008DF8040000208DF8060003208DF805003E
:1041A00001208DF8070069460648FDF799F90024BB
:1041B00004E0204600F008F8601CC4B2042CF8DBD0
:1041C0001CBD0000001C024010B50446032C00DD9D
:1041D00010BD0420A04081B20248FDF7ECF900BFF9
:1041E000F6E70000001C024010B50446032C00DD79
:1041F00010BD0420A04081B20248FDF7DEF900BFE7
:10420000F6E70000001C024038B5044600250020F7
:1042100000904C4821680160217901716D1D601981
:1042200000880090AD1CBDF8000040F20222811A07
:10423000904256D016DCB0F5817F3AD00ADC0128D6
:1042400021D0022826D0032828D0A0F2011000286F
:1042500075D129E0A0F2031080B3012836D0FE28E2
:104260006DD138E0042951D006DC01293FD0022964
:1042700043D0032963D144E005294BD0062950D00F
:10428000FF295CD151E060192F4902880A808078AB
:10429000887055E02D48615D017051E061191C2264
:1042A0002B48FBF7F9FF4BE061192A4809680160C8
:1042B00046E0611928480968016041E0FFE760199C
:1042C000264902880A808078887039E0611924487C
:1042D0000988018034E061190F222248FBF7DCFFD6
:1042E0002EE061190E222048FBF7D6FF28E0611965
:1042F00010221E48FBF7D0FF22E01D48615D0170CF
:104300001EE061191B480988018019E01A48615DA7
:10431000017015E06019194902680A608088888078
:104320000EE01748615D01700AE0601915490268E6
:104330000A6042684A608068886001E0FFE700BF69
:1043400000BF38BDC00000209C0000209F0000205E
:10435000E00E0020A0000020A4000020A800002003
:10436000AB000020FC0E00200B0F0020190F0020D6
:10437000AD000020AE000020B0000020B100002001
:10438000B7000020290F002010B5FDF781FB10BDFC
:1043900010B524220249A1F12400FDF725FF10BD2C
:1043A000EA04002002480068401C01490860704788
:1043B0002C00002070B505460C4600260DB1022CDD
:1043C00001D8002070BDA11E094802882846FFF7C9
:1043D0008DFD0646F1B2A01E285C814206D1601E0A
:1043E000285CB0EB162F01D10120EBE70020E9E7B4
:1043F000CE00002070B505460C4600260DB1022CFB
:1044000001D8002070BD611EFF222846FFF788FDFD
:104410000646601E285CB04201D10120F2E7002070
:10442000F0E7000021F00042A2F16052B2F5801FD7
:1044300001F0004328BFD2F17F6C0BD95FEA001C6A
:1044400043EAC20242EB507018BF704728BF20F009
:1044500001007047B2F5801FBCBF184670474FEA95
:10446000410C1CF5001F02D2084600F081B970B55E
:1044700000F0B4F800000089FFF7F6BF4FF00040ED
:10448000A0F5800070470000DFF848C170B51CEA55
:10449000111E1EBF1CEA13159EEA0C0F95EA0C0FA5
:1044A00000F06F8081EA030423EA4C134EEAD47EC5
:1044B00021EA4C1141F4801143F48013AE44A1FB76
:1044C000024CA0FB0365AEF17F7E361955EB0C055F
:1044D000A1FB034C4CF10003A0FB021C16EB0C06E5
:1044E000654153F10003094218BF46F0010613F479
:1044F000007F0BD14FEA03314FEA0530340341EA24
:10450000155140EA16506FF003020AE04FEAC3214A
:104510004FEAC520F40241EA555140EA56506FF087
:10452000020202EB2E4201EB025585EACE710AD05F
:104530005FEA440C18BF24F0004450F1000041F140
:10454000000120EAD47040F2FE7C624500D270BDCA
:10455000A84214BF4FF080444FF04044002E08BFE3
:104560000024BEF1806FA8BFA1F1C041BDE870403A
:1045700080F282804FF0000001F1C04101F0004163
:1045800070479EEA0C0F0CEA131518BF95EA0C0F42
:1045900006D04FF0000081EA030E0EF0004170BD1E
:1045A00000F01CF88900013E00F007B800F009B8DF
:1045B0004FEA430C5FEA5C5C08D081EA030100F03B
:1045C0005BB84FEA410C5FEA5C5CF6D14FF000004B
:1045D000014970470000FF070000F87F0EF1020E4E
:1045E0002EF0030E5EF8046B364205D4012A43EB2D
:1045F000030515F5001F12D8012841EB010C1CF52D
:10460000001F0CD80ED14FEAD17C15F5001F0CEB22
:104610004C0C0CF1020C08BF4CEBD37C04E04FF0C7
:10462000080C01E04FEAD37C0CEB4C0526FA05F6AA
:1046300006F00706B6F1040C06D20EEB860CBDE8B8
:1046400070404CF0010C6047DFE80CF0090B0202EF
:104650004FF000414FF00000A1F5002170BD194658
:104660001046012851EB010418BFD4F5001484BF93
:10467000002001F0004170BD0808A0F500114FEACC
:104680003101704743004FEAD30C4FEA3C0C4340E2
:104690001FBF40070CF1605113F0FE4F70471CF034
:1046A000006F03D100200CF0004170470CF0004374
:1046B00043EA507010B540EACC0000F00EF800BF9D
:1046C000000000924FEA0001FFF7D6BF4FF0004113
:1046D0004FF00000A1F5002170470EF1020E2EF000
:1046E000030E5EF8044B244204D44FEA4102B2F1B7
:1046F0007F4F11D84FEA4003B3F17F4F0CD80ED152
:104700004FEAD07CB2F17F4F0CEB4C0C0CF1020C59
:1047100008BF4CEBD17C04E04FF0080C01E04FEAFD
:10472000D17C0CEB4C0324FA03F404F00704B4F13D
:10473000040C06D20EEB840CBDE810404CF0010CCA
:104740006047DFE80CF0070802024FF00040A0F5D8
:10475000800010BD0846420018BFD2F1807288BFA9
:1047600000F0004010BD4FF04070E1EE100A7047BD
:10477000FF2141EAD050C0057047000000606A4642
:104780000000204100000000000020410000000067
:104790000000003FABAA2A3EABAAAA3E000070412F
:1047A0000000803F000000400000204100000000A9
:1047B0000000003FABAA2A3EFF005EBCE2613FDD85
:1047C00083C29C7E20A3FD1F419DC3217FFCA2408C
:1047D0001E5F01E3BD3E6082DC237D9FC1421CFE63
:1047E000A0E1BF5D0380DE3C62BEE0025CDF81636E
:1047F0003D7C22C09E1D43A1FF4618FAA427799B49
:10480000C584DA3866E5BB5907DB856739BAE40643
:10481000581947A5FB7826C49A653BD987045AB82E
:10482000E6A7F91B45C6987A24F8A6441A99C72525
:104830007B3A6486D85B05E7B98CD2306EEDB35114
:104840000F4E10F2AC2F7193CD114FADF3702ECCF3
:1048500092D38D6F31B2EC0E50AFF1134DCE9072FA
:104860002C6D33D18F0C52B0EE326C8ED0530DEFD5
:10487000B1F0AE4C1291CF2D73CA947628ABF517D8
:10488000490856B4EA6937D58B5709EBB536688ABB
:10489000D495CB2977F4AA4816E9B7550B88D634B6
:1048A0006A2B7597C94A14F6A8742AC896154BA99D
:1048B000F7B6E80A54D7896B350000008911122336
:1048C0009B322446AD573665BF74488CC19D5AAFA4
:1048D000D3BE6CCAE5DB7EE9F7F88110080193339B
:1048E0001A22A5562C47B7753E64C99C408DDBBF84
:1048F00052AEEDDA64CBFFF976E802218B3010027C
:1049000099132667AF763444BD554AADC3BC588E63
:10491000D19F6EEBE7FA7CC8F5D983310A2091125A
:104920001803A7772E66B5543C45CBBD42ACD99E43
:10493000508FEFFB66EAFDD874C904428D531661AF
:104940009F702004A9153227BB364CCEC5DF5EED23
:10495000D7FC6888E1997AABF3BA85520C4397711A
:104960001E60A1142805B3373A26CDDE44CFDFFD03
:1049700056ECE9986089FBBB72AA06638F721440FB
:104980009D512225AB343006B9174EEFC7FE5CCCE3
:10499000D5DD6AA9E3B8788AF19B87730E629550DA
:1049A0001C41A3352A24B1163807CFFF46EEDDDCC3
:1049B00054CDEBB962A8F99A708B088481951AA737
:1049C00093B62CC2A5D33EE1B7F04008C919522BCB
:1049D000DB3A644EED5F766DFF7C899400859BB772
:1049E00012A6ADD224C3BFF136E0C1184809D33BAB
:1049F0005A2AE55E6C4FF77D7E6C0AA583B4188653
:104A000091972EE3A7F23CC0B5D14229CB38500A8A
:104A1000D91B666FEF7E744CFD5D8BB502A4999631
:104A20001087AFF326E2BDD034C1C3394A28D11A6A
:104A3000580BE77F6E6EF55C7C4D0CC685D71EE586
:104A400097F42880A1913AA3B3B2444ACD5B56694A
:104A5000DF78600CE91D722FFB3E8DD604C79FF5F1
:104A600016E4A9902081BBB332A2C55A4C4BD7792A
:104A70005E68E11C680DF33F7A2E0EE787F61CC4D2
:104A800095D52AA1A3B03882B193466BCF7A54480A
:104A9000DD59622DEB3C700EF91F8FF706E69DD4B1
:104AA00014C5ABB122A0B9923083C77B4E6AD558EA
:104AB0005C49E33D6A2CF11E780F000000007A4447
:104AC0000000000000000000000020410000000085
:104AD0000000003FABAA2A3EF84A00080000002070
:104AE000D0000000E8010008C84B0008D0000020FA
:104AF000E8150000040200080095BA0A0000000052
:104B0000000000000102030406070809000000007D
:104B10000102030401020304060708090000000063
:104B20000000000000000000000000000000000184
:104B300000000000BD1C0008E803000000000000A9
:104B4000711D0008F4010000000000005D1D000858
:104B5000C800000000000000391D000864000000CB
:104B6000000000007D1D0008320000000000000071
:104B70006D1D000814000000000000006F1D0008FB
:104B80000200000000000000000000000000000023
:104B90000000000000000000000000000000000015
:104BA0000000000000000000000000000000000005
:104BB00000000000D30F00200000000000000000F3
:084BC000000000000000FFFFEF
:04000005080001AD41
:00000001FF
